:020000040040BA
:10000000384D0020E9A94000E5A94000E5A94000DD
:10001000E5A94000E5A94000E5A940000000000076
:10002000000000000000000000000000E5A9400002
:10003000E5A9400000000000E5A94000F1D440001F
:10004000E5A94000E5A9400079DF4000E5A94000AE
:1000500009DD4000E5A94000E5A9400000000000DE
:1000600055724000E5A9400079764000E5A94000BE
:10007000E5A9400000000000E5A94000E5A9400016
:10008000E5A940000000000000000000E5A94000D4
:10009000E5A94000E5A94000E5A9400015CB4000D6
:1000A000E5A94000E5A940000000000000000000B4
:1000B00000000000793C4000E5A94000E5A94000AF
:1000C00010B5054C237833B9044B13B10448AFF392
:1000D00000800123237010BD800A00200000000072
:1000E000146041000C4B43B10C480D4910B5AFF3FF
:1000F00000800C48036823B910BD0A48036833B96F
:100100007047094B002BF7D0BDE810401847064B4D
:10011000002BF5D0184700BF00000000146041001C
:10012000840A0020146041000000000000EB8002FF
:10013000064B03EB8203DB7913F0020F04D0162881
:10014000CCBF00200120704700207047B01600206F
:1001500000EB8002064B03EB8203DB7913F0040F04
:1001600004D01628CCBF0020012070470020704723
:10017000B016002010B50446C0F3C7002A30064B65
:10018000984704F007040123A340184010F0FF0F24
:1001900014BF0120002010BDB5B84000162815DCA2
:1001A00010B504460A4B984730B904EB8403094A5A
:1001B00002EB830381229A71064BA000021903EB24
:1001C0008202D37943F01003D37110BD704700BF92
:1001D00051014000B0160020162815DC10B5044669
:1001E0000A4B984730B104EB8403094A02EB8303BE
:1001F00080229A71064BA000021903EB8202D37988
:1002000023F01003D37110BD704700BF51014000AF
:10021000B0160020162808DC044B8200111803EBEE
:100220008101CB7943F00303CB717047B0160020F6
:10023000162808DC044B8200111803EB8101CB79EE
:1002400023F00203CB717047B016002000B51628CA
:1002500000F29D80DFE800F00C161C272D33393F9B
:10026000454B51575D63696F757A80868C91970015
:1002700011F0080F1DBF00211170032202221A7015
:100280005DF804FB0021117004221A705DF804FB74
:1002900011F0080F4FF00001117012BF1970012208
:1002A0001A705DF804FB0221117006221A705DF8C5
:1002B00004FB0221117007221A705DF804FB022171
:1002C000117003221A705DF804FB022111700422E0
:1002D0001A705DF804FB0221117001221A705DF89A
:1002E00004FB0021117005221A705DF804FB012146
:1002F000117005221A705DF804FB012111700622AD
:100300001A705DF804FB0121117007221A705DF864
:1003100004FB0021117007221A705DF804FB032111
:10032000117000221A705DF804FB03211170012284
:100330001A705DF804FB0321117002221A705DF837
:1003400004FB0321117019705DF804FB0321117087
:1003500004221A705DF804FB0321117005221A7043
:100360005DF804FB0221117005221A705DF804FB90
:100370000221117019705DF804FB02211170002236
:100380001A705DF804FB0321117006221A705DF8E3
:1003900004FB0000324B1B780BB9162800DD7047B8
:1003A0002DE9F04F85B004462E4B984704EB8403AB
:1003B0002D4901EB83014FF00A0A81F815A00126AF
:1003C0008E750023CB750B760DF10F030DF10E0228
:1003D000C979E0B2254DA8479DF80E302A33019324
:1003E000BDF804703846DFF8A480C0479DF80F5070
:1003F00006FA05F50543EDB2294638461C4FB847C5
:100400001C48DFF88C90C8471B48DFF888B0D847F5
:1004100051469DF80400DFF880A0D0471748D84720
:1004200010212846D0471348C8473A20C0478119B1
:10043000C9B23A20B84703210220114B9847084B14
:100440001E70A4F10903B34204D9112C05D005B0E4
:10045000BDE8F08F0B4B9847F7E70B4B9847F6E753
:10046000BC10002015024000B01600204D024000D4
:1004700045B84000183B41001C3B4100243B410073
:100480009DCD400025B9400041BA4000B5B84000BC
:10049000E5744000C9734000F9734000F0B583B0C3
:1004A00000238DF8073003238DF80630394B1B7875
:1004B0000BB9162801DD03B0F0BD054600EB800343
:1004C000354C04EB83040DF107030DF10602E179CD
:1004D000C0B2324EB047002323726375A375E37533
:1004E000E371A3716372A372E37223736373A373E3
:1004F000E3732374E37463769DF806402A34204640
:10050000274EB0479DF807300121994020EA0101AC
:10051000C9B22046234CA0473A20B047411CC9B27B
:100520003A20A047A5F10903012B0FD9A5F111032A
:10053000012B0BD9132D28D0152D26D006210120F3
:10054000194B98470122134B1A70B4E72E20174E0F
:10055000B04704463020B04707463A20104B984732
:10056000064624F0E00189B241F020012E20104C13
:10057000A04739463020A047711CC9B23A20094B28
:10058000984700220B4B1A70D4E700220A4B1A70CE
:10059000D4E700BFBC100020B01600204D02400080
:1005A000B5B8400045B840009DCD4000C1B84000FE
:1005B0005DB84000CB000020A00A0020F0B587B055
:1005C0000C4615461F460F2301AA0121734EB04762
:1005D000012802D0002007B0F0BD9DF80B109DF857
:1005E000040004EB84036E4A02EB830321F00F0244
:1005F0009DF810603243C60006F4E0663243A3F86B
:100600000D2001F00F028DF80B2000F01F028DF875
:10061000042000211976997D0131997542F001027B
:10062000DA7110F0020F24D19DF80530BB409DF81F
:100630003420134004EB8402594901EB8202D27941
:1006400012F0080F26D004EB840201EB8202527EE6
:1006500012F0010F1ED013F0400F17D05149B1F91D
:100660000010082909DC01314E4A118003F0BF0354
:1006700013E020464C4B9847D6E704EB84014848EA
:1006800000EB810122F001024A7606E00021454A92
:10069000118002E00021434A118041490D4485F850
:1006A000253204EB840301EB83039DF807109DF8CA
:1006B000062042EA0122A3F809209DF809109DF8BE
:1006C000082042EA0122A3F80B206CBB344B9DF8B2
:1006D0000D109DF80C2042EA0122A3F80F209DF88E
:1006E0000F109DF80E2042EA0122A3F811209DF878
:1006F0000B2002F00F021A759DF80A30FF2B46D02E
:10070000032B44D0264904EB840201EB8202D3740C
:100710004A889A424FEAC40000F1050014BF234BF7
:10072000234B9847012056E79DF80B3003F00F0349
:1007300004EB84021A4901EB82021375022CDBD10F
:10074000062B0DD0052B10D0042B14D0032B18D062
:10075000022BD1D1124BB3F9FB21A3F83120CBE707
:10076000B1F90122A1F83120C6E70D4BB3F90122FE
:10077000A3F83120C0E70A4BB3F9FF21A3F83120D9
:10078000BAE7074BB3F9FD21A3F83120B4E7E00045
:100790000530074B984701201DE700BF1548400072
:1007A000B01600201C11002015024000053B40003F
:1007B0005D3B4000F0B585B00D4616461F46082348
:1007C0000DF1050201212E4CA047C4B2012C03D02B
:1007D0000024204605B0F0BD05EB8503294A02EB55
:1007E000830300221A769A7D01329A759DF80520BE
:1007F00042F00101D97112F0100F14BF0121002144
:10080000204B83F8D61112F0020F2BD11D4A16444B
:100810009DF80630BB409DF82C100B4096F8250241
:100820009DF8281001400B4386F82532AB0059197A
:1008300002EB81019DF80B0008759DF80C101D441A
:1008400002EB8505E97492F8D3318B4212D092F80D
:10085000D431012B0AD90B4B002283F8D42183F821
:10086000D311B6E72846084B9847CFE7013382F803
:10087000D431AEE70022034B83F8D421A9E700BFAF
:1008800015484000B01600201502400008B51A4B6C
:1008900093F8D52102F0FB03532B01D0002008BDB3
:1008A00007211920154B9847012813D0124A92F8B6
:1008B000D7310133DBB282F8D731032B19D9134674
:1008C00092F8D22122F0010283F8D221002083F88D
:1008D000D70108BD084B93F8D52183F8042193F87C
:1008E000D22122F0010283F8D221002283F8D721FD
:1008F00008BD002008BD00BFB0160020E54640003E
:1009000008B51C4B93F8D321082119201A4B98479E
:10091000012813D0174A92F8D7310133DBB282F89D
:10092000D731032B23D9134692F8D22122F00202A9
:1009300083F8D221002083F8D70108BD0D4B93F82E
:10094000D32183F803210C200C4B984758B1094B55
:1009500093F8D22122F0020283F8D221002283F8F8
:10096000D721012008BD0C20054B9847EFE7002058
:1009700008BD00BFB0160020E54640005101400010
:100980009D0140002DE9F04385B007460D46012347
:1009900001AA19462A4CA047012805D00020294B5E
:1009A000186005B0BDE8F083DFF8AC80AE007419C4
:1009B00008EB84044FF0000984F81890A37D0133FC
:1009C000A3752846204B9847E37923F00C039DF844
:1009D000042002F004021343E371B8F9E941C4F3BF
:1009E000072249463846194B9847012805D0002070
:1009F000144B1860164B1870D3E7E2B20121384649
:100A0000124B9847012805D000200E4B1860104B60
:100A10001870C6E700240F4D0C4E15F8012BE1B2FB
:100A20003846B047012804D10134082CF5D1012003
:100A3000B7E70020034B1860054B1870B1E700BF03
:100A400015484000700B002015024000E5464000AC
:100A50007A0B0020801C0020B01600202DE9F04108
:100A600084B00C4616461F460B2301AA0121A64D51
:100A7000A847012803D0002004B0BDE8F08104EBB2
:100A80008405A24B03EB850500232B76AB7D013358
:100A9000AB7520469E4B9847EB7923F00C039DF8ED
:100AA000042002F004021343EB719DF807209DF827
:100AB000063043EA02231BB2A5F809309DF809105D
:100AC0009DF8082042EA012212B2A5F80B209DF8F9
:100AD0000B009DF80A1041EA002109B2A5F80D109B
:100AE0009DF80D009DF80CC04CEA002C0FFA8CFC10
:100AF000A5F80FC09DF80EE085F813E0032C0CD08C
:100B0000042C66D0082C1FD19DF80530C3F3400398
:100B1000F3B97E49A1F8FD211AE07E4A10687E4AA9
:100B200090420CD900207B4A10607C4A12782F2A10
:100B300032D87B4820F812300132784B1A7089B2D3
:100B400041EA0C41774B19609DF8053003F0010331
:100B50006E490E4496F825029DF82820024003FABB
:100B600007F7174386F8257204EB840301EB830132
:100B70004FEA5E03A1F80D301EF0010F00F08B80EC
:100B8000042C5BD0032C62D0062C69D0052C70D0CD
:100B9000072C77D001206FE70022604B1A70604A63
:100BA000B2F90000134602F15E08054633F9022F40
:100BB0009042B8BF10469542A8BF15469845F5D15A
:100BC000401BB0F5FA7FD4BF01220022564B1A70A9
:100BD000B5E7564A1068504A90420CD90020534A53
:100BE0001060534A12782F2A0BD8524820F812303E
:100BF00001324F4B1A7089B241EA0C414E4B1960D9
:100C0000A2E700224A4B1A704A4AB2F90000134682
:100C100002F15E08054633F9022F9042B8BF104634
:100C20009542A8BF15464345F5D1401BB0F5FA7F64
:100C3000D4BF01220022414B1A70DCE7334A92F8FC
:100C4000DC3163F07F0382F8DC31012014E72F4AA6
:100C500092F8DC3143F0400382F8DC3101200BE7ED
:100C60002A4A92F8DC3143F0200382F8DC3101207B
:100C700002E7264A92F8DC3143F0100382F8DC31B7
:100C80000120F9E6214A92F8DC3143F0080382F8AA
:100C9000DC310120F0E6042C09D0032C10D0062C06
:100CA00017D0052C1ED0072C25D00120E4E6174ACA
:100CB00092F8DC3103F07F0382F8DC310120DBE6BF
:100CC000124A92F8DC3123F0400382F8DC31012033
:100CD000D2E60E4A92F8DC3123F0200382F8DC31B0
:100CE0000120C9E6094A92F8DC3123F0100382F8AA
:100CF000DC310120C0E6054A92F8DC3123F008031C
:100D000082F8DC310120B7E615484000B01600201B
:100D100015024000D01000203F771B00740B00200C
:100D2000A80A0020A40A00206C0B0020D810002084
:100D3000750B00200C0B0020080B00206D0B002011
:100D40002DE9F04387B00C4616460C2301AA022178
:100D5000214DA84701280AD0002004EB84041F4B32
:100D600003EB84040023E37407B0BDE8F083DFF8ED
:100D70006C80A7003D1908EB85054FF0000985F848
:100D80001890AB7D0133AB752046154B98479DF805
:100D900006209DF8053043EA0223A5F809309DF8A6
:100DA00008209DF8073043EA0223A5F80D300123FF
:100DB000EB7285F80C90464496F825229DF8383061
:100DC000134086F825322E20064B9847B5F9093096
:100DD000A8F8F1310120C0E715484000B016002006
:100DE00015024000C1B8400008B505201D4B9847CA
:100DF00018B906201B4B984780B31B4AB2F96D30D7
:100E0000B2F981209342B8BF1346174AA2F8EB31DA
:100E10000320144B984718B90420124B9847F8B197
:100E2000114AB2F94530B2F959209342B8BF13467E
:100E30000D4AA2F8E93107200A4B984720B10A4B26
:100E4000B3F99520A3F8ED210820064B984720B16F
:100E5000054BB3F9AB20A3F8EF2108BD0023D4E77D
:100E60000023E5E72D014000B0160020F8B5064646
:100E70000C4600214F4B984740B9012C08D0022C5A
:100E80004FD028464C4B984700B2F8BD0026F4E7F7
:100E90004A4B1C68002C2CDD494B1D68494C4A4BC1
:100EA00019682846A0472946A0472946A047074673
:100EB000464B19682846A0472946A047444E01469C
:100EC0003846B0470746434B19682846A0470146B5
:100ED0003846B047404B1968B04705463F49354B47
:100EE0009847B0B93E4928463E4B984790B13C4D93
:100EF00010E0334D31462868354B9847286001345F
:100F00002E4B1C60384BB3F90000384B9847054610
:100F1000B7E7002500222A4B1A600022274B1A60EF
:100F2000AFE7334B1C68002C2CDD324B1D68254C81
:100F3000254B19682846A0472946A0472946A047BF
:100F40000746224B19682846A0472946A047204E4D
:100F500001463846B04707461E4B19682846A04749
:100F600001463846B0471C4B1968B04705461B4937
:100F7000104B9847B0B91A4928461A4B984790B178
:100F8000174D10E01B4D31462868114B98472860DB
:100F90000134174B1C60184BB3F90000134B9847F2
:100FA00005466EE700250022124B1A600022104B06
:100FB0001A6066E76DFA4000A9FA40002811002087
:100FC000481100201DF740002C5D4100305D4100BC
:100FD0000DF54000345D4100385D41000000A04146
:100FE0000000634481FA40003E11002075F6400085
:100FF0002C1100204C110020401100202DE9F0435D
:1010000087B006460D4690460F2301AA0121544C95
:10101000A047012803D0002007B0BDE8F0839DF869
:101020000B7027F00F079DF80A3047EA13179DF859
:101030000430DB0003F4E0631F43DFF8409105EB6D
:10104000850409EB840400232376A37D0133A37573
:101050002846444B9847E37923F00C039DF804207D
:1010600002F004021343E3719DF807209DF8063057
:1010700043EA0223A4F809309DF809209DF80830BE
:1010800043EA0223A4F80B309DF80B209DF80A30A8
:1010900043EA0223A4F80D309DF80D209DF80C3092
:1010A00043EA02231BB2A4F80F309DF80E20E2742D
:1010B000C84498F825129DF838200A4088F825225F
:1010C0003E2E13D03C2E2AD03D2E33D03F3EF6B2DA
:1010D000012E42D89DF80B3023F00F039DF80D2010
:1010E00043EA1213204A1370012095E7B9F99F01D2
:1010F0001E4B984701211E4B98471E4B1880B9F98B
:1011000099316433A9F89931B9F99B316433A9F85D
:101110009B31B9F99D316433A9F89D31D6E7164A60
:10112000138005EB8505154B03EB8505A5F80D70C0
:10113000012071E7114AA9004B1902EB8303D87B08
:1011400008331B7A40EA03230D4803800D4402EB69
:101150008502A2F80D7001205EE701205CE700BF68
:101160001548400015024000A00A002075F6400016
:101170006D0E40003E110020780B0020B0160020BC
:10118000760B0020B64BB3F8203213F0200F03D1BA
:10119000B44B1B68002B3DDD4FF40062B24B1A6369
:1011A000B24A1378591C117013F0010F40F04284B9
:1011B0002DE9F04F83B0AE4B1C78631CDBB2162BCD
:1011C0002DD8AB4A1370AB4B1B78012B2BD0AA4BFD
:1011D0001B78012B34D0A948A94B9847162C00F254
:1011E0000482DFE814F03C00AA009900B800C700B0
:1011F000D500E400F30002011F0110012E015D0182
:101200006C017B018A019901A801B701C601D501D2
:10121000E401F3014FF40062934B5A63C0E70022EC
:10122000934B1A70CFE79620964B9847964B1B78B6
:101230008342CCD000228F4B1A70934B1870C6E7B4
:101240009720904B9847914B1B788342C3D0002343
:10125000894A13708E4A13708C4B1870BBE70220BA
:101260008C4EB04705460320B0470544EDB2A34677
:10127000A146264607274FF05F0A4FF00A08002DC7
:1012800040F0B68104EB8403754A02EB8303DB79FB
:1012900013F0010F00F0AC8104EB840302EB830335
:1012A00082229A7104EB84036D4901EB830302F0FF
:1012B0003F01597600214046774B9847012800F0BE
:1012C000F78104EB8403664A02EB83039B7913F0F6
:1012D000020F00F0B08104EB8402614B03EB820249
:1012E000137A0133DBB2137282219171604A127852
:1012F000002A00F02D82013A5D490A70032B40F26A
:101300009A812046654B984704EB8404544B03EBC9
:10131000840300229A716EE301205E4EB0470546B9
:101320000020B0470544EDB22646A04617274FF0EF
:10133000000B4FF05F0AD946A1E70420554B9847B0
:10134000054626460F274FF0000B4FF01F0AD946DF
:101350004FF0140893E716204E4B98470546264653
:101360001B274FF0F30B4FF0040A4FF002094FF028
:101370001E0884E71720474B984705461E274FF065
:101380001F0B4FF0100A4FF005090326D84676E7E9
:101390001320404B9847054623274FF0E30B4FF0AF
:1013A000040A4FF0020956464FF0220867E714205E
:1013B000384B9847054626274FF01F0B4FF0100A71
:1013C0004FF0050904264FF0230858E71120314B50
:1013D000984705462B274FF0F30B4FF0040A4FF0C8
:1013E000020905264FF0260849E70520294B9847B2
:1013F00005463F27BB464FF0400A4FF00609072637
:101400004FF032083BE70E20224B98470546342721
:101410004FF0C70B4FF0080A4FF0030906264FF0B4
:1014200029082CE70D201B4B9847054631274FF024
:10143000F80B4FF0010A4FF0000906264FF028087C
:101440001DE70F20134B9847054637274FF03F0BFA
:101450004FF0400A4FF006094E464FF02A080EE7BB
:10146000B016002038110020000E0E407B0B00202B
:101470007C0B0020CA000020C900002050140E4040
:1014800039434000B5B8400043110020CF00002090
:10149000C800002075014000E54640009D04400062
:1014A0000720C14B984705462F274FF03F0B4FF0C1
:1014B000400A4FF0060905264FF01908DFE618200C
:1014C000B94B984705465C274FF0CF0B4FF0200AE9
:1014D0004FF005090B264FF03308D0E61920B24B28
:1014E000984705465E274FF03F0B4FF0800A4FF0BC
:1014F00007090B264FF03408C1E61A20AA4B98477B
:10150000054660274FF0FC0B4FF0020A4FF001092F
:101510000C264FF03508B2E61B20A34B9847054632
:1015200062274FF0F30B4FF0040A4FF003090C262B
:101530004FF03608A3E61C209B4B984705466427CE
:101540004FF0CF0B4FF0200A4FF005090C264FF05B
:101550003C0894E61D20944B9847054666274FF0BB
:101560003F0B4FF0800A4FF007090C264FF03D0863
:1015700085E615208C4B9847054668274FF0FC0BF5
:101580004FF0020A4FF001090D264FF03F0876E6B2
:101590001220854B984705466A274FF0F30B4FF012
:1015A000040A4FF003090D264FF03E0867E61020AD
:1015B0007D4B984705466C274FF0CF0B4FF0200A24
:1015C0004FF005090D264FF0400858E61E20764BD7
:1015D0009847054619274FF0FC0B4FF0020A4FF0D1
:1015E000000903264FF0410849E64FF0000B46E69C
:1015F00004EB84036D4A02EB83039A7912F0800FA7
:101600007FF450AE694B93F8D231002B00F0AA80E2
:10161000664A92F8F72012F0010F00F0A38013F051
:10162000010F40F0998013F0020F40F098800022E3
:101630005E4B83F8D221002D00F0E18104EB84039E
:101640005A4A02EB8303DA7D0132DA751B7E0133DD
:10165000DBB2242B40F2E58104EB8403534A02EB16
:10166000830324221A76514B1E4496F825220BEA56
:10167000020B86F825B204EB840203EB82030022FE
:101680005A729A72DA721A735A739A73DA731A74F4
:101690005A749A743846464B98472046454B9847AB
:1016A0000C2C40F088810022404B83F8D62182E147
:1016B00004EB84033D4A02EB83039B7913F0010F93
:1016C00023D020463C4B984704EB8403374A02EB77
:1016D00083039A7922F001029A7104EB8403334A5E
:1016E00002EB83039B7913F0020F1BD1334A12786C
:1016F00052B3013A31490A7004EB84022B4901EBE1
:10170000820203F07F039371B8E020462C4B984788
:1017100004EB8403254A02EB8303DA7922F0040206
:10172000DA71DAE71346164496F825220BEA020B23
:1017300086F825B204EB840203EB820300229A713F
:101740002046204B984756E116211C4A1170D3E7DA
:1017500016211A4A1170D1E51B4B98476BE71B4BBA
:10176000984768E7132C33D0152C4BD0142C5DD040
:10177000162C3FF660AFDFE814F0730073007300BF
:10178000A400A400A400A400A400A400EA00F400A3
:1017900008019800AE00B800C200CC00D600E000FE
:1017A0002E005C002E00FE0075014000B0160020E7
:1017B000053B4000310240009D0140007C0B0020B1
:1017C000D90140009D0440008D08400001094000FF
:1017D000994B1B784BB1CDF800B04B4632462146B1
:1017E0004046DFF87C82C04745E0944B1A780B21D5
:1017F0003F20934B984701287FF41DAF01228E4B69
:101800001A7018E78F4B1B78002BE4D18B4B1A789A
:10181000C2F16402D2B20B214020894B98470128C3
:101820007FF409AF0122874B1A7004E7864B1B78BF
:101830004BB1CDF800B04B46324614214046DFF89C
:101840002082C04717E0814B1A780B213E207C4B49
:10185000984701287FF4EFAE01227B4B1A70EAE62D
:10186000CDF804A0CDF800B04B46324621464046A4
:10187000DFF8F081C04700283FF4DDAE4FF400628E
:10188000734B1A63002D40F089802046714B9847B6
:10189000714AA1000B1902EB83030A20587500203E
:1018A00018769A7D01329A75A5E0CDF804A0CDF89E
:1018B00000B04B4632460C214046DFF8AC81C047B1
:1018C000D9E7CDF800B04B46324621464046DFF816
:1018D0009C81C047CFE7CDF800B04B4632460D2182
:1018E0004046DFF87C81C047C5E7CDF800B04B46E5
:1018F00032460E214046DFF86881C047BBE7CDF88D
:1019000000B04B4632460F214046DFF85481C047B5
:10191000B1E7CDF800B04B46324610214046DFF823
:101920004081C047A7E7CDF800B04B4632461121B1
:101930004046DFF82C81C0479DE7CDF800B04B460C
:10194000324612214046DFF81881C04793E7CDF8B0
:1019500000B04B46324609214046DFF81481C047AB
:1019600089E7CDF800B04B4632460A214046DFF801
:101970000081C0477FE7CDF800B04B4632461621C4
:101980004046DFF8F080C04775E7334B334493F8A7
:1019900025220BEA020283F825224CE638462F4B1B
:1019A000984704EB84032C4A02EB830300221A7647
:1019B0009A7D01329A7504EB8402274B03EB820275
:1019C000D37D927D1A44032A0BD904EB840122486B
:1019D00000EB8101D31A03EB83035B0093FBF2F36B
:1019E0004B75092A07D91C4BA200111903EB810181
:1019F0000020C8758875012003B0BDE8F08F164D32
:101A00002E4496F825320BEA030B86F825B23846A9
:101A1000124B984704EB840405EB840500232B76D6
:101A2000E9E704EB84020C4901EB82021376232BD5
:101A3000C1D918E601207047C9000020CF0000205E
:101A4000E5464000C8000020CA00002043110020E5
:101A5000000E0E4095034000B01600205D3B400094
:101A6000FD0F4000BD054000B50740005D0A400085
:101A7000410D400085094000F8B5C0F57F70033086
:101A8000234B9847234EB04715A3D3E90023224C9C
:101A9000A047224D14A3D3E90023A847204CA04718
:101AA000B04702460B4612A1D1E90001A8471D4FDD
:101AB00011A3D3E90023B847A0471B491B4B984704
:101AC000B0471B4B984702460B460DA1D1E90001D8
:101AD000A8470DA3D3E90023B847A047F8BD00BF2E
:101AE0006666666666660A400000000000F88F4081
:101AF00000000000001DE040000000000088C3401E
:101B00000000000000DCAE4066666666661271404A
:101B100075F64000C9ED400071EE4000C5F0400090
:101B200061F4400009EB40008D71903C85F8400065
:101B3000D9E340002DE9F04F83B0914B984704461C
:101B4000904BB3F8193213F0400F3ED100228E4B68
:101B50001A608E4B1B68E21A312A02D89C4280F030
:101B600008818A4B1C608A488A4B984740208A4BE0
:101B70009847042828BF04205FFA80FA874B18781A
:101B8000874EB047874D2B6818442860864C2368E1
:101B900001332360854B1878B0476B681844686040
:101BA000636801336360BAF1020F11D800227E4BE3
:101BB0009A60BAF1030F15D800227B4BDA607A4D98
:101BC000784E4FF0580B002447E0794B9847C0E718
:101BD000784B1878B047AB681844A860A368013305
:101BE000A360E6E7744B18786D4B98476D4AD3684D
:101BF0001844D0606C4AD3680133D360DFE758469D
:101C00006E4B984748466E4B98476E496E4B9847C7
:101C10000190012C32D06D4901986D4B9847DFF847
:101C2000D891C847574B04F1FC0203EB4203A3F8D9
:101C300003000198C847674B23F814003B689B10CA
:101C40003B60D8F800309B08C8F8003001340435F8
:101C500004360BF1010B042C2BD0A24522DD2F46BC
:101C60002B684F2BF2DDB0463268B2FBF3F9B9F5C1
:101C70007A7FC4D95846584B9847DFE70820574B1E
:101C800098470028DAD151490198514B9847DFF81D
:101C90006891C8473B4BA3F8FD010198C8474D4BDD
:101CA0005880CBE700232B6033605846434B98475E
:101CB000CCE74B4B1C68E0B2394B9847394A52F895
:101CC0002430184442F82400374A52F824300133B3
:101CD00042F82430172B11DDB0FBF3F2D20041495A
:101CE000A1FB0212D2082749A1F8072280082D4A39
:101CF00042F824009B102C4A42F8243000243A4B2E
:101D00001E68274F274D0DE01E4B03EB4403A3F83D
:101D100003020023244941F8223045F822300134DF
:101D2000022C23D03019C0B2B847321955F82230EE
:101D3000184445F822001C4951F82230013341F87B
:101D400022300F2BEBDDB0FBF3F0284B1B78002B80
:101D5000DAD100EB8000A3F15533A3FB0030094B2F
:101D600003EB44034008A3F80302D2E7204B1B7B9C
:101D700013B903B0BDE8F08F1E4B9847F9E700BFD9
:101D8000C1D54000B0160020B8100020D80B0020AC
:101D900050140E4039434000B5B8400042110020B5
:101DA000F1D94000800B0020AC0B0020CD000020BA
:101DB00031CF4000CE000020CC0000205D3B400031
:101DC000791A40000000C8421DF740000000204181
:101DD00085F84000A8160020253B40002D0140005A
:101DE000485D4100E1830F3E4C5D4100EE10002054
:101DF000701C002031DC4000A9FA40002DE9F047BA
:101E0000884621B307464B1EDBB2013303EB430385
:101E100000EB830A4FF000080E4E06E099F8003000
:101E200048EA03080C37574511D0B9467D683B7A1C
:101E3000002BF7D02C1F013BDBB205EB830554F8D8
:101E4000040FB0470028E9D1AC42F8D1EAE7404698
:101E5000BDE8F087E53A40002DE9F04186B0A8489A
:101E6000A84B9847A84B98478046012840F3148414
:101E7000A64B1B78F3B10022A54B1A60A54BDB786B
:101E8000443B132B00F20884DFE813F056010604EC
:101E900006040604060406040604060406040604F2
:101EA0000604060450040604200606041F00060467
:101EB00006043D0603210220974B98470122934BCD
:101EC0001A705620954B9847D5E7954B442283F8D6
:101ED0002222072283F823228E4B1B79303B232BAF
:101EE00000F2BD80DFE813F03F006E00A900C500DE
:101EF000E5000401BB00BB00BB000401BB00BB004C
:101F0000BB00BB00BB00BB00BB00BB00BB00BB00F9
:101F1000BB003200BB00BB00BB00BB00BB00BB0072
:101F2000BB00BB00BB00BB00BB00BB00BB00240070
:101F30007B4BB3F8192242F48052A3F819220122F4
:101F400083F82022002283F821228EE0744BB3F81C
:101F5000192222F48052A3F81922002283F82022A9
:101F600083F8212298E36E4AB2F8193243F4805381
:101F7000A2F81932B2F8203243F00301A2F820127D
:101F8000644A9279012A0DD9624A52796F2A0DD09A
:101F9000632A11D023F0020343F00103604AA2F840
:101FA00020325CE002215B4A9171EDE7594B99794F
:101FB00000205C4B984752E0564B99790120594BD1
:101FC00098474CE0564AB2F8193243F48053A2F8CD
:101FD0001932B2F8203243F00501A2F820124D4A1E
:101FE0005279412A09D0532A17D023F0040343F031
:101FF00001034B4AA2F8203231E04FF400024A4B71
:102000001A63012203F500731A63454A92F81F32DE
:1020100043F0030382F81F3221E04FF40002424BE9
:102020005A63012203F500735A633D4A92F81F3246
:1020300023F0030382F81F3211E0394BB3F8192261
:1020400042F48052A3F81922B3F8202242F0090288
:10205000A3F820222F4B997958792F4B9847304B72
:10206000B3F82032002B00F017832A482F4B9847F3
:1020700012E32B4AB2F8193243F48053A2F8193212
:10208000244B5B79412B0AD0254AB2F8203223F049
:102090001003A2F820320220254B9847DFE7B2F860
:1020A000203243F01103A2F820320220214B98473E
:1020B000D5E71B4AB2F8193243F48053A2F819321B
:1020C000144B5B79432B07D0154AB2F8203223F02A
:1020D0002003A2F82032C2E71346B2F8202242F0D1
:1020E0002102A3F820220B4A927983F82422B6E732
:1020F0000B4AB2F8203243F00103A2F82032AEE7D7
:1021000050140E403943400049784000241100200B
:1021100020110020641B00209DCD40005D3B40004D
:10212000B0160020F5CD4000000E0E40157840009E
:10213000D90140009D014000DE4B6B229A70442281
:10214000DA70DD4A92F8C9101971B2F9F1115971BA
:10215000091299715178D97192F81D12197292F879
:102160001E125972B2F9E51199720912D972B2F9B7
:10217000E711197309125973B2F909129973091207
:10218000D973B2F90F12197509125975B2F90B12F8
:10219000197409125974B2F9111299750912D97585
:1021A000B2F90D1299740912D974B2F91312197691
:1021B00009125976B2F9F31183F82610091283F83F
:1021C000271092F83D109976517DD97692F8291012
:1021D0001977D27902F0010312F0080F18BF43F00B
:1021E000020312F0040F18BF43F00403B24A527EF8
:1021F00012F0010F18BF43F00803AF4A92F82522EE
:102200000AB143F01003AB4A9377AB4BDA7E02F08E
:10221000010312F0040F18BF43F00403A64A92F81A
:102220002D2012F0010F18BF43F00803A24A92F8C4
:1022300026220AB143F010039E4AD3779E4B93F8AF
:102240002F2002F0010312F0080F18BF43F0020321
:1022500012F0040F18BF43F00403974A92F841208C
:1022600012F0010F18BF43F00803934A92F8272297
:102270000AB143F010038F4A53778F4B93F8BF2175
:1022800002F0010312F0020F18BF43F0020312F034
:10229000040F18BF43F00403874A92F8D12112F0CB
:1022A000010F18BF43F00803834A92F828220AB1AD
:1022B00043F010037F4A82F833307F49B1F90B3085
:1022C00082F820301B1282F821300B7D012B00F0A8
:1022D000E781794BB3F9FD31764A82F822301B123F
:1022E00082F82330744AB2F91F10724B83F824101D
:1022F000091283F82510B2F91D1083F83110091264
:1023000083F83210B2F9331083F82D10091283F8D4
:102310002E10B2F9311083F82F10091283F8301003
:10232000B2F9151283F82810B2F9171283F82910A0
:10233000091283F82A1092F8435015F0010000F0BA
:10234000B78192F851205B4B83F82B20594B5A4AA6
:10235000117983F82C105949B1F9001083F8341021
:10236000091283F835105649B1F9001083F8361078
:10237000091283F837105349B1F9001083F8381067
:10238000091283F839105049B1F9001083F83A1056
:10239000091283F83B1092F87D1183F83C1092F8F3
:1023A000691183F83D1092F85B2102F0010312F0ED
:1023B000040F18BF43F004033F4A92F86D2112F056
:1023C000010F18BF43F008033B4A92F8311209B1DC
:1023D00043F01003374A82F83E30374B93F86F31A1
:1023E00003F0010213F0040F18BF42F00402324B55
:1023F00093F8813113F0010F18BF42F0080209B1C0
:1024000042F010022B4B83F83F202B4AB2F94510C3
:1024100083F84010091283F84110B2F9951083F83F
:102420004210091283F84310B2F96D1083F844107A
:10243000B2F9591083F84510091283F84610B2F921
:10244000811083F84710B2F9491083F84810B2F9A7
:102450005D1083F8491092F8511083F84A1092F8F1
:10246000651083F84B10B2F94740A11083F84C1067
:10247000C4F3852183F84D10B2F95B108A1083F8FC
:102480004E20C1F3852283F84F20034615F0020F3A
:1024900018BF40F0020315F0040F18BF43F0040307
:1024A000054A92F8552012F0010F18BF43F00803B7
:1024B0000CE000BF641B0020B0160020780B002049
:1024C000760B00209E0A00209C0A0020934A92F876
:1024D000280208B143F01003914A82F850308F4B24
:1024E00093F8572002F0010312F0020F18BF43F0D7
:1024F000020312F0040F18BF43F00403874A92F856
:10250000692012F0010F18BF43F0080308B143F02F
:102510001003834A82F85130804B93F86B2002F00D
:10252000010312F0020F18BF43F0020312F0040F70
:1025300018BF43F00403794A92F87D2012F0010F8E
:1025400018BF43F00803754A92F8290208B143F016
:102550001003734A82F86730704B93F87F2002F0C3
:10256000010312F0020F18BF43F0020312F0040F30
:1025700018BF43F00403694A92F8912012F0010F4A
:1025800018BF43F0080308B143F01003644A82F80F
:102590006830624B93F8932002F0010312F0020FAF
:1025A00018BF43F0020312F0040F18BF43F00403F6
:1025B0005A4A92F8A52012F0010F18BF43F0080301
:1025C000564A92F82A220AB143F01003544880F880
:1025D0006930524BB3F99720920002F00C02B3F924
:1025E0006F502D0105F030052A4304F00304224307
:1025F00080F85220B3F98320120102F0300201F07A
:1026000003010A4380F85320B3F9612180F8542074
:10261000121280F85520B3F9752180F85620121255
:1026200080F85720B3F9352080F85820121280F82E
:102630005920B3F90D2080F85A20121280F85B203F
:10264000B3F9212080F85C20121280F85D20B3F9E4
:10265000C12080F85E20121280F85F20B3F9D520E7
:1026600080F86020121280F861202E4A127880F8DB
:102670006220B3F90F2080F86320121280F86420E2
:10268000B3F9112080F86520121280F866201B7DB6
:1026900080F86A30244B9847404606B0BDE8F08188
:1026A000B1F9093082F822301B1282F8233019E682
:1026B0001A4B93F8573013F0010F06D0174B93F8CD
:1026C0006520174B83F82B2040E6144B93F86B30B2
:1026D00013F0010F06D0114B93F87920104B83F8BB
:1026E0002B2033E60D4B93F87F3013F0010F06D00B
:1026F0000A4B93F88D200A4B83F82B2026E6074BD4
:1027000093F8933013F0010F3FF420AE034B93F88E
:10271000A120034B83F82B2018E600BFB016002041
:10272000641B0020A00A002015784000B14B5979A5
:10273000B14B5B788B4200F02181AF4BAD4A1079F1
:102740001870597091799970D179D970117A19717D
:10275000517A5971917A9971D27ADA71A74B1B78B3
:10276000002B00F01A810022A54B1A60A14B4222D7
:102770009A705022DA70A34AB2F9FB211A71121230
:102780005A710820A04B9847002800F020819D4BEB
:10279000B3F9AB30974A93711B12D3719949B1F9D0
:1027A000FF21944B1A7212125A72B1F901229A72D5
:1027B0001212DA72B1F90322944880FB0254D21744
:1027C000C2EBA40292B2642A28BF64221A73B1F940
:1027D000052280FB0240D217C2EBA00292B2642A0B
:1027E00028BF64225A7391F8DC219A73B1F9EB2166
:1027F000DA73B1F9E9211A7412125A74B1F9ED21A0
:102800009A741212DA74B1F819221A75120A5A75EA
:1028100091F81B2203F8162F01F5097201F23121FC
:1028200012F8010F03F8010F8A42F9D1754B93F8A2
:10283000BF2102F0010312F0020F18BF43F00203A0
:1028400012F0040F18BF43F004036E4A92F8D1212E
:1028500012F0010F18BF43F008036A4A92F82822C9
:102860000AB143F01003634C84F82430654D95F8A9
:10287000DF3184F825303A20654EB04784F82600D1
:102880007E20B04784F827009820B04784F82800BD
:10289000ED20B04784F82900B5F9EF3184F82A30EB
:1028A0001B1284F82B30B5F9073284F8373095F8CD
:1028B000DD3184F8383095F8DE3184F8393095F818
:1028C0001C3284F83A30534B1868534B984780B207
:1028D00084F83B00000A84F83C00504B1B7884F8D5
:1028E0003D304F4B1B7B002B79D04D4F4D4E4E4909
:1028F0007868B047484DA84780B284F83E00000A87
:1029000084F83F004849B868B047A84780B284F8C7
:102910004000000A84F84100444B1B78002B00F073
:10292000B780434A11788B4240F28C80314A82F85A
:102930002C3082F82D1001EBC1003C4B0344587839
:1029400082F82E00987882F82F00D87882F830002C
:10295000187982F83100587982F83200987982F833
:102960003300D87982F83400187A82F835005B7A1F
:1029700082F8363001312E4B1970A3E01E4BDA7805
:102980001C4BDB799A427FF4D8AE1B4B9A78194BDB
:102990009B799A427FF4D1AEE0E60122174B1A7080
:1029A000154C244D23786278A1782846224EB047F2
:1029B0001423E371A17901F5FA61204B19602379A1
:1029C0006279E078009028461D4CA047CBE60D4B7D
:1029D000B3F9FD31074A93711B12D371DEE6054B43
:1029E000002283F83E2083F83F2083F8402083F8BC
:1029F000412091E7641B0020801C0020DD0B00209B
:102A0000E8100020B01600202D01400067666666C1
:102A1000B5B84000B8100020F5FA4000C000002012
:102A2000701C00201DF7400000002041E418002029
:102A3000DC0B002060140E40313E4000B811002035
:102A4000393F40005B4A82F82C30002382F82D3059
:102A5000594B597882F82E10997882F82F10D9782E
:102A600082F83010197982F83110597982F83210D1
:102A7000997982F83310D97982F83410197A82F86A
:102A800035105B7A82F8363001224C4B1A7019E00F
:102A9000484A002382F82C3082F82D3082F82E30FC
:102AA00082F82F3082F8303082F8313082F83230BC
:102AB00082F8333082F8343082F8353082F836309C
:102AC0003E4A13703B483E4B9847E5E5394A137937
:102AD0009CB256792644013EB6B2C3F10703334493
:102AE00093705223D370B44209D8551D354F2046F8
:102AF000B84705F8010F0134A4B2A642F7D22D4819
:102B00002F4B9847C8E52B4B1D795C792C44013C31
:102B1000A4B20023ADF810304C22ADF80820ADF877
:102B200012207E22ADF80A208522ADF814209822CA
:102B3000ADF80C209922ADF81620ED22ADF80E204C
:102B400004A902A802E00133042B15D031F81320A8
:102B5000AA42F8D830F81320A242F4D31A481B4BEB
:102B600098471B4A214628461A4B9847B0F1FF3F29
:102B70000CBF3225302503E01348144B984731250C
:102B80001148124B98470B4C0B23A3705723E3704B
:102B9000A5713A200B4DA847E0717E20A84720720E
:102BA0009820A8476072ED20A847A0722046044BE9
:102BB000984771E5641B0020E4180020DC0B00201E
:102BC00015784000B5B8400050140E40394340001D
:102BD0006A1B0020DDC1400010B504462B200B4BC2
:102BE000984714F0800F1ABF40F00101C9B200F0FD
:102BF000FE0114F0400F14BF41F0020101F0FD018D
:102C00002B20034B9847034B5C7110BDB5B84000B7
:102C100045B84000B01600202DE9F043A5B0A24B06
:102C200098470546012840F3FC81A04B1B79313BB6
:102C3000262B00F2F381DFE813F00601F101F10128
:102C4000F101F101F101F101F101F101F101F101F4
:102C5000F101F101F101F101F101F101F101F101E4
:102C6000F101F1012700F101F101F101F101F1019F
:102C7000F101F101F101F101F101F1017301F10142
:102C8000F101F101F101A5013B20894B984706466E
:102C9000042800F0B280062814BF1123772343F0E4
:102CA0000803824A517919408248017091790B409A
:102CB00081490B70137AD07940EA032000B27F4B30
:102CC000A3F8E501917A547A44EA012424B2A3F8E6
:102CD000E741002800F09380794B984770A3D3E92F
:102CE0000023784FB847784B9847784B9847734BF9
:102CF000A3F80902002C00F089802046704B984709
:102D000067A3D3E900236F4CA0476F4B98476F4BE5
:102D100098476A4BA3F80F026849644B987B5A7B2B
:102D200042EA0022A1F80B22187DDA7C42EA002256
:102D3000A1F81122187CDA7B42EA0022A1F80D22C8
:102D40009A7D5B7D43EA0223A1F81332604A13683F
:102D50000133136050205F4B9847022E5DD0042E44
:102D60000CBF0323072353490A784978914256D070
:102D700023EA020122F00F020A43504981F82D2272
:102D80004D490A784978914253D023EA020322F050
:102D90000F021343494A82F82E32484B93F81E2201
:102DA00002F00F0283F81E2293F81D2202F00F0298
:102DB00083F81D224420474CA0474C20A0472E20DA
:102DC000454B984710F4804F0CD03C4B93F81E2293
:102DD00022F00F0283F81E2293F81D2222F00F0228
:102DE00083F81D22334B5A789A701A785A70324BF6
:102DF0005A789A701A785A7015E133234FE72F4B9F
:102E0000002283F8092283F80A2273E72B4B002261
:102E100083F80F2283F810227EE70123A3E72549D8
:102E200089789142A4D122F00802244981F81D2218
:102E3000A6E7214989789142A7D122F008021F4BC9
:102E400083F81E22A9E7194B58791C4B5B79834202
:102E500001D0224B9847154B1B7A532B44D0134B70
:102E60005B7B432B4BD01D20114B98470F4B99791F
:102E7000884202D01D201A4B98471E200C4B9847C1
:102E80000A4BD979884202D01E20154B9847002260
:102E9000144B1A7051200F4B9847C4E0AFF30080D9
:102EA0009A99999999990940AD794000F01B0020B1
:102EB000B5B84000F80B0020F40B0020B01600203D
:102EC000A5ED400071EE400061F44000F5FA4000CD
:102ED000E40B00205D3B4000C1B84000D92B40000E
:102EE00045B84000DE0B0020524B534A917A1970CE
:102EF000D17A5970117B9970527ADA70AFE7552008
:102F00004E4B984722244E4F4E4E2046B847231D25
:102F1000014698B2B0470134A4B2262CF5D1A2E7FD
:102F2000454B9B79772B26D8434A567903F10909FB
:102F3000A9F102028DF8122007228DF813205222E7
:102F40008DF814208DF815608DF816307BB10024B3
:102F5000DFF8EC80384F3019C0B2C04724AB2344AF
:102F600003F8790C0134E4B2BB79A342F3D84946A3
:102F700004A8354B98470022344B1A7051202F4B30
:102F8000984750E02C4B5879997901440023ADF8CB
:102F900008304C22ADF80020ADF80A207E22ADF8B2
:102FA00002208522ADF80C209822ADF80420992249
:102FB000ADF80E20ED22ADF8062002AC02E00133A0
:102FC000042B10D034F813208242F8D83DF8132097
:102FD0008A42F4D31E4A1F4B9847B0F1FF3F14BFFB
:102FE0003021322100E0312108238DF812300723EF
:102FF0008DF8133057238DF814300F4B5A798DF814
:1030000015209B798DF816308DF817100A2104A829
:103010000D4B98470122104B1A7004E00F4B984754
:1030200001E0002803DB284625B0BDE8F0830B4B08
:103030009847F8E7801C0020F01B00205D3B400013
:10304000B5B8400045B8400029794000DE0B0020AB
:10305000F71B0020DDC14000FB0B00200979400078
:1030600010B50A4B98470446094B1B68C21A022A3E
:1030700001D8984203D29C4202D8054B1C6010BD77
:10308000044B9847044B9847F7E700BFC1D5400071
:10309000F00B0020591E4000192C400030B589B0BB
:1030A0006C4BB3F8203213F0200F4FD0694B93F8DC
:1030B0002442684B83F81C4273228DF800206D2255
:1030C0008DF801200C228DF8022004228DF80320B7
:1030D00046228DF8042093F8DD218DF8052093F821
:1030E000DE318DF806308DF807403C205A4CA04761
:1030F0008DF808003B20A0478DF8090000238DF8CB
:103100000A308DF80B3055490868421C0A6012F0ED
:10311000030F15D1524B196801EB81035B0093FB40
:10312000F0F34C484370172A0ADD002900F08D8027
:103130004B4A13685B101360484A13685B101360B6
:103140000E216846474B984709B030BD464B1B7867
:10315000002B14BFF72500253E4A92F82F3203F0CA
:10316000DF0002F225220123002404E0002818BF1A
:103170000824013301320B2BF8D0A3F109010129F6
:1031800035D91178002918BF08240C2BF1DD552002
:10319000364B984710B144F00204E4B22D4B93F83B
:1031A0001B3213F0010F1CBF64F07F04E4B23B201C
:1031B000294B984702281FD004280BBF30237023C7
:1031C00003210721284A12784F2A18D0214A92F861
:1031D0001E22134204D11F4A92F81D22134202D02C
:1031E00044F01004E4B20022214B1A7061E7117818
:1031F0000D4218BF0824C8E710230121E2E71C4A4A
:103200001278042A1AD90520194A1070114A92F826
:103210001E2231EA020003D044F01004E4B248E771
:103220000C4890F81D028143F6D10243134214BFAB
:1032300044F0100444F02004E4B23AE701320C4BAD
:103240001A7044F02004E4B233E75020094B984749
:103250006EE700BFB0160020B5B84000E00B0020BC
:10326000E40B002029794000EE100020E53A4000F0
:10327000E80B0020053B4000244B1B78002B33D18A
:10328000F0B59BB007238DF80330214B1B7813F06A
:10329000010F4FD138238DF8023031238DF80430DF
:1032A0001C4BB3F819328DF805301B0A8DF8063027
:1032B00008211948194CA0478DF807000621184825
:1032C000A0470746174C04F12006174D54F8040B8D
:1032D000A847002840F0A882B442F7D1134B1B78CE
:1032E00033B907F0FB00A8E20022084B1A707047C0
:1032F0000F4B1B781D2B03D801330D4A137099E235
:1033000000230A4A13700A4A1370EAE7FB0B0020F5
:10331000EB0B0020B0160020383C4100FD1D4000A2
:10332000983C4100983B4100E53A4000EA0B002000
:10333000E90B002067238DF8023032238DF804302A
:10334000D74BDA788DF805209A788DF806205A78D0
:103350008DF807201B788DF80830D24B1B688DF84C
:1033600009301A0A8DF80A201A0C8DF80B201B0E52
:103370008DF80C304020CC4CA04700F007008DF8B1
:103380000D007B20A0478DF835007C20A0478DF8EC
:1033900036009620A0478DF865009720A0478DF84D
:1033A0006600C24B93F8DC318DF83430C04BB3F972
:1033B00000308DF80E301B128DF80F300820BD4BF9
:1033C0009847002800F0B981B84BB3F9A9308DF8BF
:1033D00010301B128DF81130B74B1B7873B9B44AFB
:1033E000B2F904308DF812301B128DF81330B2F997
:1033F00006308DF814301B128DF815300020AF4DBB
:10340000A847041C18BF01240120A84708B144F0B4
:1034100002040220A94B984708B144F00404A34BCE
:1034200093F82F3013F0080F18BF44F008049F4B97
:103430009B7913F0010F18BF44F010049B4B9B7E47
:1034400013F0010F18BF44F02004984B93F82E306E
:1034500013F0010F18BF44F04004944BDB7913F0D4
:10346000080F18BF44F080048DF816408F4BB3F955
:1034700009208DF8172012128DF81820B3F90B20AF
:103480008DF8302012128DF83120B3F91D208DF8FF
:10349000372012128DF83820B3F91F208DF819202B
:1034A00012128DF81A20B3F931208DF8392012123A
:1034B0008DF83A20B3F933308DF81B301B128DF89C
:1034C0001C307D4B1978002940F06482774BB3F9AA
:1034D0000D218DF83B2012128DF83C20B3F90F21FD
:1034E0008DF83D2012128DF83E20B3F911218DF890
:1034F0003F2012128DF84020B3F913218DF841209E
:1035000012128DF84220B3F921218DF843201212B6
:103510008DF84420B3F923318DF845301B128DF816
:103520004630624BB3F925218DF8472012128DF8F1
:103530004820B3F927218DF8492012128DF84A202E
:10354000B3F935218DF84B2012128DF84C20B3F9C8
:1035500037218DF84D2012128DF84E20B3F9392104
:103560008DF84F2012128DF85020B3F93B318DF8B1
:1035700051301B128DF8523071B94C4AB2F94931B1
:103580008DF853301B128DF85430B2F94B318DF851
:1035900055301B128DF85630444AB2F94D318DF832
:1035A00057301B128DF85830B2F94F318DF8593021
:1035B0001B128DF85A30424BB3F900308DF85B3056
:1035C0001B128DF85C303F4BB3F900308DF85D3045
:1035D0001B128DF85E30A1B9B2F999318DF85F30C8
:1035E0001B128DF86030B2F99B318DF861301B12DF
:1035F0008DF86230B2F99D318DF863301B128DF871
:1036000064302A4BB3F9E9218DF81D2012128DF890
:103610001E20B3F9EB218DF81F20B3F9ED218DF8B1
:103620002020B3F9F1218DF8212012128DF82220EB
:10363000B3F9F3218DF8232012128DF82420B3F969
:10364000E5208DF8252012128DF826205A7D8DF860
:10365000272093F829208DF8282093F83D308DF805
:1036600029300A20134B984700286FD00F4B93F84E
:10367000DD308DF82A300D4B5B788DF82B300F2024
:10368000094B98473038C0B2022865D8C0EB4013C8
:1036900000EB830000EB80000401A4B214E000BF43
:1036A000801C002030110020B5B84000B01600206A
:1036B000A81600202D0140000E11002051014000ED
:1036C000780B0020760B00201020BA4EB04705463C
:1036D0001120B047A5F13003DBB2C3EB431203EB7B
:1036E00082023038C0B200EB800000EB8000830023
:1036F00003EBC2031C44A4B2AF4B9847AF4BA3FBF0
:1037000000235B098DF82C30C82C27D819238DF89D
:103710002D308DF82E00000A8DF82F00A84B93F85D
:10372000DF218DF8322093F81B328DF83330A54B12
:103730001B78012B1AD0692413E1A34BB3F9023093
:103740008DF810301B128DF8113045E69C4B93F824
:10375000C9308DF82A308EE70024B5E7B4F5966FAE
:1037600094BF23232D238DF82D30D2E7974BB3F947
:1037700000308DF843301B128DF84430944BB3F970
:1037800000308DF845301B128DF84630914BB3F95F
:1037900000308DF85F301B128DF860308E4BB3F91E
:1037A00000308DF861301B128DF862308B4BB3F90D
:1037B00000308DF863301B128DF86430884BB3F9FC
:1037C00000308DF812301B128DF81330854BB3F991
:1037D00000308DF814301B128DF81530824BB3F980
:1037E00000308DF83B301B128DF83C307F4BB3F925
:1037F00000308DF83D301B128DF83E307C4BB3F914
:1038000000308DF853301B128DF85430794BB3F9DA
:1038100000308DF855301B128DF856306924A0E029
:103820005120754B9847AFE00122744B1A7000226B
:10383000734B1A7047F00400C0B28DF80800604C5A
:1038400094F81F3203F003038DF8093055206D4BB7
:1038500098478DF80A00B4F903226B4981FB0203F3
:10386000D217C2EBA3028DF80B20B4F9053281FB0D
:103870000321DB17C3EBA1038DF80C303B204D4B2C
:1038800098478DF80D00B4F9E5318DF80E301B1214
:103890008DF80F30B4F9E7318DF810301A121AABE9
:1038A00003F8572D0DF12501002203F8012F8B425B
:1038B000FBD1434AB2F909328DF812301B128DF850
:1038C0001330B2F90F328DF814301B128DF8153009
:1038D0009DF80D30022B1ED91146B2F90B228DF83E
:1038E000162012128DF81720B1F911228DF8182028
:1038F00012128DF81920042B0DD9B1F90D328DF863
:103900001A301B128DF81B30B1F913328DF81C30B0
:103910001B128DF81D303A20264CA0478DF826004A
:103920007E20A0478DF827009820A0478DF828001A
:10393000ED20A0478DF82900214890F81D328DF820
:103940002A3090F81E321AAA02F83D3D00F509739C
:1039500000F50C7013F8011F02F8011F9842F9D10D
:103960003A242A4A137801331370294B1A78C2F18A
:10397000160303EBD3735B1011490B71152A3FF645
:103980004FAF0132224B1A7021466846214B9847AF
:103990001BB0F0BD0A4AB2F911318DF83F301B124D
:1039A0008DF84030B2F913318DF841301B128DF88B
:1039B0004230B6E5B5B840005D5540001F85EB517B
:1039C000B01600200E110020A8160020FA100020CA
:1039D000F81000200411002006110020081100201A
:1039E0000C1100200A110020F6100020F410002015
:1039F000FE100020FC100020053B4000EA0B0020D8
:103A0000E90B0020E53A400067666666EB0B002094
:103A1000DE0B00202979400008B51C481C4B984754
:103A20001C4B1B68B3F5FA7F0CDB1B4BDB6B13F0F5
:103A3000807F4FF08072184B14BF5A631A630022C4
:103A4000144B1A60144BDB6B13F0005F0DD0134A5C
:103A5000137801331370114B1B7813F0010F14BF4F
:103A60000F4B104B9847012008BD00230B4A1370E1
:103A70000D4A137051200D4B98470D4B5B79002B6D
:103A8000E9D000200B4B9847E5E700BF50140E40EB
:103A90003943400034110020000E0E40EC0B002092
:103AA000793240009D304000DE0B00205D3B40003D
:103AB000B0160020D92B4000084B03F10D01002265
:103AC00003F8012F8B42FBD1054B03F1700100225B
:103AD00003F8012F8B42FBD1704700BFD4180020A0
:103AE000F7110020C0F3C702054B134493F82532A9
:103AF00000F0070043FA00F000F00100704700BF3B
:103B0000B0160020C0F3C702054B134400F00702B3
:103B10000120904093F82522104383F82502704736
:103B2000B01600200B4B1B5C082B0ED9C0F3C7034B
:103B3000094A1A4400F00700012303FA00F092F842
:103B40002532184382F8250270470133014A135485
:103B5000704700BFF8110020B016002010B4C0F369
:103B6000C7010C4B0B4493F8253200F0070243FACF
:103B700002F414F0010F08D0064C2144012404FA89
:103B800002F223EA020381F825320022024B1A5482
:103B900010BC7047B0160020F8110020002303600D
:103BA000064A4260064A82604FF48022C2600222C6
:103BB000027442748374C3740375704700E1F505A1
:103BC000808D5B00B1F5803F0AD0B1F5003F07D092
:103BD000436819434160036C23F440330364704726
:103BE000436823F010034360036C1943016470477A
:103BF00038B5036B13F0807301D0192038BD012252
:103C000002608A7C002A18BF4FF000430A7C12062B
:103C100002F070624C7C240704F040542243CC68CC
:103C200022438C6865004C68B4FBF5F4013C240227
:103C3000A4B2224313434360CB7C002B14BF4FF04C
:103C4000807300230A7D002A14BF4FF480120022E3
:103C5000134303640968064B9847064B03F1600160
:103C6000002243F8042F8B42FBD1002038BD00BF57
:103C7000C53B40006C12002070B582B00B4B1B6B33
:103C800001930B4E341F0B4D5C3602E00435B442F9
:103C900009D0019A54F8043F1A42F7D02B68002B40
:103CA000F4D09847F2E702B070BD00BF0080034037
:103CB000E03C41007012002000B583B01D20114B84
:103CC0009847114B9B78FF2B1AD0EFF31083B3FA70
:103CD00083F35B09019372B6BFF35F8F00220B4B36
:103CE0001A700199084A93780133937029B101221F
:103CF000064B1A70BFF35F8F62B603B05DF804FB2A
:103D0000FEE700BFA1A6400068120020B900002015
:103D100008B5120202F4706241F080611143024B57
:103D20009847002008BD00BF69000020A1F10E03E4
:103D3000012B02D84FF0FF30704710B582B0EFF37F
:103D40001083B3FA83F35B09019372B6BFF35F8FFD
:103D500000240B4B1C70019C120222F07F4222F0C7
:103D6000FF0242F0B442C9B21143064B98472CB14E
:103D70000122034B1A70BFF35F8F62B602B010BD11
:103D8000B90000206D0000200B4619B109680160E0
:103D90005B6843601AB113680361536843617047FD
:103DA00021F0FE01C905C90D0162704740687047E6
:103DB000406800F4E060704721B9436823F00103D4
:103DC00043607047436843F00103436070470162FA
:103DD00070474162704730B485688468A54203D05B
:103DE00085688468AC42FBD161B1C4F3015000EB3B
:103DF0008005C4F3034000EB450014F4800F18BFA6
:103E00000C30086042B1C4F3023101EB8101C4F30C
:103E1000032000EB4101116043B1C4F3021202EB35
:103E2000820204F00F0404EB42041C6030BC7047B3
:103E3000F0B4446814F0010F05D00C293DD90C39B9
:103E40004FF4800700E000271D4CA4FB0356F60842
:103E500006EB8605A3EB450343EA0613A4FB0265C4
:103E6000ED0843EA053305EB8505A2EB450543EA7A
:103E700005233B43A4FB0142D20843EA025302EB71
:103E80008202A1EB420143EA0141836913F0040F6E
:103E9000FBD0036843F001030360836913F0010F53
:103EA000FBD00123C3618160036823F00103036039
:103EB000C06A00F00100F0BC70470027C4E700BFF3
:103EC000CDCCCCCCF0B4049EC568C468A54203D068
:103ED000C568C468AC42FBD199B1C4F3033000EBB0
:103EE0008000C4F3032707EB4007C4F3021000EB84
:103EF000800504F00F0000EB4500642505FB007011
:103F0000086042B1C4F3005081000844C4F3034187
:103F100001EB4001116043B1C4F3017202EB820274
:103F2000C4F3036101EB42021A6016B1C4F34254B8
:103F30003460F0BC7047000070B42A4DA5FB034606
:103F4000F608039C640544EA067406EB8606A3EBB8
:103F5000460344EA0363A5FB0264E40843EA04530E
:103F600004EB8404A2EB440243EA02421E4BA3FB8F
:103F700001439B0942EA03121C4BA3FB01435B096B
:103F8000A5FB0364E40804EB8404A3EB44031A4395
:103F9000A5FB0143DB0803EB8304A1EB440142EAE8
:103FA0000122A5FB0315ED0805EB8505A3EB4505EF
:103FB00042EA0532836913F0040FFBD0036843F033
:103FC00002030360836913F0010FFBD00123C36177
:103FD000C260036823F002030360C06A00F00200BD
:103FE00070BC7047CDCCCCCCD34D62101F85EB514B
:103FF00080697047C16170472A4B994249D8A3F53F
:104000007A5399422BD910B4274CA4FB0234A40B49
:10401000043C264B0B449B00B2FBF3F2043AFF2C0A
:1040200039D9002101316408FF2C0DD90729F9D1B4
:1040300013029BB2090401F4E0210B43E4B22343D1
:104040000361002010BC7047FF2AF1D90629EFD880
:1040500001315208FF2AEBD90629F9D9E8E74900CE
:10406000B2FBF1F2043AFF2A11D9002301335208BE
:10407000FF2A01D9072BF9D1110289B21B0403F4DD
:10408000E0230B43D2B21A430261002070470023A1
:10409000F2E701207047FF2A88BF0021D8D800210D
:1040A000C6E700BF801A0600F11976050012FD3F31
:1040B00038B504460D464FF0FF338362036A802310
:1040C0000360036B08230360202303600423036061
:1040D0000A684968054B9847012814BF0020012051
:1040E0006B7A012B04BF4023236038BDF93F4000A9
:1040F0000A4659B103780129C4BF417841EA032334
:10410000022A04DD827842EA032300E000231846F5
:1041100070470000F8B5CC68002C5DD00B46054612
:104120008E68002068604A68120202F4407242F40D
:104130008052097C090401F4FE010A436A60E860C8
:1041400059681846294B9847E860012C0FD0012385
:104150002B6000202B6A13F4807F44D147F22F514B
:1041600047F230574FF0010E4FF0020C19E00323D5
:104170002B600120EEE70A4670460CE008B9C5F84E
:1041800000C013F0020FF6D070462B6B3370013C69
:1041900001363A4664B12B6A13F4807F1FD1511E59
:1041A000FAB1012CEAD013F0020FEED10A46F1E782
:1041B00000220F4B1A601A462B6A13F0010F03D12D
:1041C0001368B3F5FA7FF7D32B6A094B1B68B3F575
:1041D000FA7F28BF092400E001242046F8BD052409
:1041E000FBE70924F9E70524F7E700BFF1404000A9
:1041F0006011002070B5CD68002D4DD00B460446EF
:104200008E68002060600A7C120402F4FE02496895
:10421000090201F440710A436260E060596818467F
:10422000214B9847E060236A13F4807F06D0052570
:1042300033E05DB1236A13F4807F30D113F0040FB3
:10424000F7D033786363013D0136F2E70022174B64
:104250001A601A46236A13F4807F22D113F0040FE8
:1042600005D11368B3F5FA7FF4D3092515E00223CD
:10427000236000220D4B1A601A46236A13F0010FC7
:1042800003D11368B3F5FA7FF7D3084B1B68B3F576
:10429000FA7F28BF092500E00125284670BD0525C5
:1042A000FBE70525F9E700BFF14040006011002061
:1042B00000B587B0002306AA02F8153D039201223B
:1042C00004928DF814108DF80430029301A9024B6A
:1042D000984707B05DF804FBF5414000436913F0CF
:1042E000020F1DBFC1F30801C1610020012070470A
:1042F000094BB3FBF1F1814202D94FF6FF707047D1
:10430000C1EB0133834202D24FF6FF707047B0FB1E
:10431000F1F0C0F30B0070470020A10710B4054C6A
:1043200004EA0343C2F30B0213430B43436010BC84
:10433000704700BF0000FF0F024B984204BF024AC3
:104340001A60704750140E40010000A508B50A46D7
:1043500001460248024B9847002008BD000A0E4063
:10436000113D400008B5A0F58002C2F34F22112193
:104370000348044B9847002818BF102008BD00BF11
:10438000000A0E402D3D40002DE9F04F85B0009110
:104390000393A0F58003C3F34F2AC0F308079346A5
:1043A000002A4DD0DFF8A89009F5FE7511E0019ABA
:1043B00001212448244B984700283ED1009B2344E8
:1043C00000930AF1010A1FFA8AFA0027BBEB040BDB
:1043D00032D0C7F5007302931C465B4528BF5C468C
:1043E000CDF804A00AF500534FEA43283A46414667
:1043F0004846164EB0472246009909EB0700B047E1
:104400003819029A121B04EB080192B2394448444D
:10441000B047A9F10403A8F1040253F8041F42F8BD
:10442000041FAB42F9D1039B002BC0D0019A03219A
:104430000448054B9847BFE7584605B0BDE8F08FE4
:104440001046FAE7000A0E402D3D400091FB400067
:10445000FC0B00202DE9F04120F4FF5020F01F005C
:1044600021F4FF5121F01F0101F5FF541F3402B167
:10447000106003B11C60A0F58004640AA4B20C4D66
:104480000D44C5F34F25A54210D9DFF82C8009272C
:10449000084E224639464046B047034618B9103404
:1044A000A4B2AC42F5D31846BDE8F0810023FAE788
:1044B000FF1FC0FF2D3D4000000A0E40024B0122AD
:1044C0005A61C3F8A0207047000E0E40024B022232
:1044D0005A61C3F8A0207047000E0E4008B5024B89
:1044E0009847024B984708BDCD444000BD4440006A
:1044F000034B01221A61C3F8A0205A63704700BF22
:10450000000E0E40034B02221A61C3F8A0205A632A
:10451000704700BF000E0E40034B01225A61C3F8E2
:10452000A020D86B10407047000E0E4010B5074B0E
:104530009847074B984740F29550064CA047064BCA
:10454000984740F29550A04710BD00BFBD444000C1
:10455000CD44400089000020F144400010B5094BD3
:104560009847094B984740F29550084CA047084B94
:10457000984740F29550A047064B984740F2955017
:10458000A04710BD05454000F144400089000020CF
:10459000CD444000BD44400038B50A4DA84740F224
:1045A000CB20094CA047094B984740F2CB20A047AD
:1045B000074B984740F29550A047A847054B9847AE
:1045C00038BD00BF0545400089000020F14440008F
:1045D000CD444000BD44400070B5094EB04740F2A4
:1045E000CB20084CA047084DA84740F2CB20A0475D
:1045F000064B984740F29550A047B047A84770BD7A
:104600000545400089000020BD444000CD444000E5
:10461000F8B5194EB04740F29550184DA847184BC1
:104620009847B320A847174FB8470446B320A84778
:10463000B8470444E4B2B320A847B8470444E4B2FE
:10464000B320A847B8470444E4B2B320A847B8470A
:104650000444E4B2B320A847B8470444E4B2B3200A
:10466000A847B8470444E4B2B320A847B047032C96
:1046700094BF00200120F8BD0545400089000020BE
:10468000CD444000194540002DE9F84381460824F7
:104690008026DFF84C8040F2CB270D4DC0473846CE
:1046A000A84719EA060F14BF0A4B0B4B9847384628
:1046B000A8470A4B9847760840F29550A847C0474C
:1046C000631E13F0FF04E9D1024B9847BDE8F8835D
:1046D00089000020BD444000F1444000CD4440002A
:1046E0000545400070B50E4615464000C4B21E4B4D
:1046F00098471E4B984720461D4B98471D4B98479F
:10470000E8B930461A4B98471A4B9847E0B9284603
:10471000174B9847174B9847D8B9A01928444342DC
:10472000C0B2DBB258BF5842C043C0B2104B98472A
:10473000104B984790B9104B9847012070BD0E4B15
:1047400098476FF0040070BD0B4B98476FF0040062
:1047500070BD094B98476FF0040070BD064B984739
:104760006FF0020070BD00BFDD4440002D454000E9
:1047700089464000114640005D4540002DE9F84F54
:1047800008274FF080084FF0000ADFF884901D4D95
:104790004FF0B30BC84740F29550A8471A4B9847C3
:1047A0005846A847194EB04704465846A847B04750
:1047B0000444E4B25846A847B0470444E4B258461B
:1047C000A847B0470444E4B25846A847B047044459
:1047D000E4B25846A847B0470444E4B25846A84754
:1047E000B0470444E4B25846A847042C88BF4AEABC
:1047F000080AC8474FEA5808013FCBD15046BDE8E8
:10480000F88F00BF89000020CD44400019454000CA
:10481000054540002DE9F0410D4617461E46400073
:104820000130C4B23D4B984720463D4B98473D4B25
:10483000984700284CD12846394B9847394B984720
:1048400000284BD13046364B9847364B98470028C6
:104850004AD1601930444342C0B2DBB258BF58421B
:10486000C043C0B22E4B98472E4B9847002841D1E9
:1048700040F295502C4B9847284B98472046284BA0
:104880009847284B984700283AD18EB17D1E013EAB
:1048900057FA86F6DFF89880244FC04705F8010FD5
:1048A0002044C4B2B847AE42F7D1E0435FFA80F883
:1048B0001F4B98471F4B18601F4BC3F800804045A3
:1048C00024D11A4B98471D4B98470120BDE8F08131
:1048D0001A4B98476FF00400BDE8F081174B9847DA
:1048E0006FF00400BDE8F081144B98476FF00400AE
:1048F000BDE8F081114B98476FF00A00BDE8F081E8
:104900000E4B98476FF00400BDE8F0810C4B9847C0
:104910000A4B98476FF00200BDE8F0812D4540003A
:10492000894640001146400089000020994540001A
:104930007D474000FC0D0020000E00205D4540003A
:10494000D9454000091A83B203F1630292B2312AB9
:1049500012D8FA29CCBF24484FF07E50A1F1E203CF
:10496000182B98BF2148A1F1C903182B98BF2048E4
:10497000C82937DC1F48704795339BB2312B16D8B6
:10498000B1F5967FCCBF1C484FF07E50A1F1FB03E0
:10499000312B98BF4FF07D50A1F1C903312B98BF47
:1049A0004FF07C50C8291DDC4FF07A50704710F151
:1049B000950F15DAB1F5AF7FCCBF4FF07D504FF0BA
:1049C0007E50A1F5A373182B98BF0C48A1F22D13AC
:1049D000182B98BF0A48B1F5967F03DC0948704749
:1049E0004FF07E50704700BF7B146E3F9A99593F3D
:1049F000C3F5283F3D0A173FAE47613FCDCC0C3F82
:104A0000AE47E13EC3F5A83E38B54020964CA047DE
:104A100005461220A047362800F07B810720934BE3
:104A2000984748B3924B93F8D6312BB3914B1C78EF
:104A30002046914B9847914B984789A3D3E900238F
:104A40008F4DA8478F4B9847C0B28F4B18703228B4
:104A500006D83334201A874B187033228A4B1A70C9
:104A6000834AB2F8193243F00203A2F8193240F235
:104A7000B142864B1A6038BD7D4BB3F8193213F042
:104A8000020F00F023817A4AB2F8202212F0010FBF
:104A900040F01C817D4A1268B2F5966F12DC042D3D
:104AA00040F088805B207A4B984788B1704AB2F812
:104AB000193223F00203A2F819324FF48002754B29
:104AC0005A6338BD23F00203694AA2F8193238BD8F
:104AD00040206F4B98470028E8D148206C4B9847FE
:104AE0000028E3D144206A4B98470028DED14C20AF
:104AF000674B98470028D9D15D4BB3F90132312B70
:104B00000EDD5B4AB2F8193223F00203A2F8193223
:104B10000022614B1A604FF480025E4B5A636AE0D8
:104B20005A4B1968322291FBF2F302FB1313002B4C
:104B300061D10220594B984718B1594A594B1A6014
:104B400065E04B4BB3F9013213F13B0F07DA564ADC
:104B5000544B1A604FF480024E4B1A6357E013F126
:104B6000280F07DA514A4F4B1A604FF48002494B25
:104B70001A634CE013F1140F07DA4D4A494B1A60DF
:104B80004FF48002434B1A6341E0002B08DA4FF0E8
:104B90007D52444B1A604FF480023E4B1A6336E05C
:104BA0001D2B28DC434A3F4B1A604FF48002394BDF
:104BB0005A632CE05920364B984750B12C4AB2F832
:104BC000193223F00203A2F819320022324B1A6084
:104BD00038BD58202E4B98470028EFD1244BB3F90D
:104BE000FB0110F1040FE9DA214BB3F9FD11324B4F
:104BF00098472C4B18602B4B1C684FF07A5120467D
:104C00002E4B984700B34FF07A52264B1A60194B3F
:104C10001C782046184B9847224B1968284B984718
:104C2000284B9847C0B2184B1870322807D804F1A7
:104C300033031B1A0F4A13703322134B1A70134A93
:104C400013680133136038BD4FF07E5120461E4B70
:104C500098470028DBD04FF07E52124B1A60D6E7FF
:104C60009A9999999999D93FB5B840007501400032
:104C7000B01600203D0E00206DF64000C9ED40004A
:104C800071EE4000D1F340003C0E0020200E0020C9
:104C9000E53A4000000E0E402C0E0020510140006D
:104CA0009A99593FB40000203333B33E6666E63E1E
:104CB0009A99193F6666663F4549400059FA400097
:104CC0001DF74000A9FA400095FA40001D4A1268FD
:104CD000A2B9042D1ED11C4AB2F901221E2A11DCF0
:104CE0001A490A68501C0860032A0EDD43F00203CB
:104CF000154AA2F8193204220A6006E0013A114B63
:104D00001A6038BD0022114B1A604FF07E52104BD2
:104D10001A6038BD0C4AB2F9FB2112F1310F0DDADD
:104D20000A490A68501C0860032AEEDD43F00203BA
:104D3000054AA2F8193204220A60E6E70022034B72
:104D40001A60E2E7200E0020B01600202C0E002092
:104D5000B40000200000000038B53F200C4B9847FD
:104D60000C4B98470C490D4B984704460C4B984701
:104D700005A3D3E900230B4DA84700B10A4C2046F8
:104D800038BD00BFAFF300809A9999999999D93F9E
:104D9000B5B840006DF640000000C84285F84000FC
:104DA000C9ED400055F34000CDCCCC3E2DE9F04F8D
:104DB00083B04E20B74DA84704468DF804004F201D
:104DC000A84706468DF805007920A8478046631E4F
:104DD000DBB2012B40F28C82731EDBB2012B40F25E
:104DE000A082092C00F09F82092E00F09E82032CE5
:104DF00000F09D82032E00F09A82002779E20025C0
:104E0000A54B1B78002B36D105F58075A34B03EB22
:104E10004503B3F9032040F2ED239A42D8BF11278E
:104E20009F48A04B98472E209F4B98470446072E3B
:104E300000F00681082E00F0698100249B4EDFF807
:104E40005482964D01ABE35C092B00F0A88101343C
:104E5000022CF7D1002F00F03A82904AB2F81932B2
:104E600023F00103A2F81932802F40F2378238462E
:104E700003B0BDE8F08F4F2BD2D105F58075874B7D
:104E800003EB4503B3F90330C72BD8BF1127C7E79E
:104E90000025814B1B7853B905F580757F4B03EBDB
:104EA0004503B3F90330C82BA8BF1127B8E74F2B30
:104EB000B6D105F58075794B03EB4503B3F90320B3
:104EC00040F2ED239A42C8BF1127A9E7002505F556
:104ED0008075724B03EB4505B5F9033003339B1026
:104EE000332B40F3AB80FF2BA8BFFF23DBB2704A0C
:104EF0001370704A1370802792E705F5807309EBF1
:104F00004303B3F90330B3F5AF7F06DAB8F1010F0D
:104F100000F092803820D04727E03920664CA04727
:104F20003B20A0473A20A0473820644B9847B8F16F
:104F3000000F01D0812773E77E20564B9847044627
:104F4000012179205E4DA847611CC9B27E20A84787
:104F5000812765E705F5807309EB4303B3F9033057
:104F6000B3F5C87F27DA3920D0470135022D3FF449
:104F700057AF01ABEC5C012C3FF442AF022C88D060
:104F8000032CA4D0A4F10B03DBB2032BEDD80B2C24
:104F9000B3D00C2CDED00D2C1ED00E2CE5D105F597
:104FA000807309EB4303B3F90330B3F5C87F31DAFB
:104FB0005846D047D9E7FF233D4A13703D4A137046
:104FC00038203D4CA0473B20A0473A20A04739203D
:104FD0003A4B9847822723E705F5807309EB430393
:104FE000B3F90330B3F5C87F02DA3A20D047BCE703
:104FF000FF222F4B1A7000222E4B1A7038202E4C95
:10500000A0473920A0473B20A0473A202B4B984788
:10501000832705E70022264B1A70FF22254B1A70C2
:105020003820254CA0473920A0473A20A0473B20F4
:10503000224B98478427F3E6812796E78127EFE6FE
:10504000164BB3F90532962B40DD0C201D4B9847CB
:10505000A0B114F4806F7FF4F0AE24F4006189B243
:1050600041F480612E20184B98473A20094B98470D
:10507000411CC9B23A20124B9847DEE6114B9847C3
:105080000028E6D114200F4B984700283FF4D5AEF6
:10509000DFE700BFB5B84000EE100020B0160020DA
:1050A00050140E4039434000C1B84000ED100020BC
:1050B0003D0E00203C0E00205D3B4000053B4000C3
:1050C00045B840002D0140005DB840000C209C4BCD
:1050D0009847A0B114F4006F7FF4AFAE24F4806160
:1050E00089B241F400612E20964B98473A20964BA6
:1050F0009847411CC9B23A20944B98479DE601203D
:105100008F4B984700283FF498AEE3E7904BB3F9F4
:105110000532962B1FDD0C20894B9847A0B114F463
:10512000006F7FF48AAE24F4806189B241F400619B
:105130002E20844B98473A20834B9847411CC9B294
:105140003A20824B984778E601207D4B984700280B
:105150003FF473AEE3E70C20794B9847A0B114F409
:10516000806F7FF46AAE24F4006189B241F48061FB
:105170002E20744B98473A20734B9847411CC9B274
:105180003A20724B984758E66D4B98470028E6D175
:1051900014206B4B984700283FF44FAEDFE733787D
:1051A00013B36C4B1A686C4B9A4209D96B4B1B7842
:1051B00033B90122694B1A7000233370684A1360B7
:1051C0004C20C04708BBB5F81932C3F30E03A5F84D
:1051D000193200235F4A1360604A1370614A1370EA
:1051E0005F4A1360112732E65A4B1A6841F287333F
:1051F0009A42E5D9594B1B78002BE1D10122574B3C
:105200001A700022564B1A60DAE795F81B3213F039
:10521000020F4BD104F5807305EB4303B3F9033060
:10522000962B1BDD4D4B1B78002B3FF410AE4D4BE6
:105230001B78002B7FF40BAE01224A4B1A70B5F895
:1052400019326FEA43436FEA5343A5F8193200233A
:10525000404A1360424A13601027F8E5B5F8193246
:10526000C3F30E03A5F8193200223E4B1A70332007
:10527000C0473B4B1A684EF6602303FB00F3934292
:1052800008D8364B1B78002B3FF4E1AD0022344B9D
:105290001A601127B5F8193213F03F0F7FF4D7AD1C
:1052A0002E4B1B78002B18BF1127D0E50023294A6D
:1052B00013602A4A13702B4A1370B5F81922C2F3EF
:1052C0000E02A5F81922264A13601027BFE5204ACE
:1052D000B2F8193243F00103A2F819323820224CF7
:1052E000A0473920A0473A20A0473B20A047BEE571
:1052F0001027174AB2F8193223F48073A2F8193232
:10530000012C3FF47CAD022C3FF4C2AD032C3FF4E2
:10531000DDAD0025DFF838904FF03B0BDFF848A0FB
:1053200030E61027E5E71027E3E71027E1E7084A12
:10533000B2F8193243F48073A2F819328027DFE7FC
:105340002D0140005DB84000B5B8400045B84000B0
:10535000B016002044110020DF280100300E00208C
:10536000040E0020080E00205D3B400010B582B006
:1053700000204F4B984720B14E4BDB7913F0080FBC
:105380000ED102204A4B984728B14A4B93F82F3050
:1053900013F0080F04D10120454B9847002844D052
:1053A000454B1B6843B9434BB3F8193213F03F0F19
:1053B0003FD09622404B1A600220404CA04700206C
:1053C000A0470120A0473C4B1A68013A1A60394BAC
:1053D000B3F8193223F03F039BB2002A4AD1354A71
:1053E000A2F81932334991F8DD21013AD2B281F89D
:1053F000DD2191F8DE31013BDBB281F8DE31542A48
:1054000003D855212B4A82F8DD11542B03D855229D
:10541000284B83F8DE21274B93F8DD11284A1170C1
:1054200093F8DE21274B1A7022E0234B1B68002BD8
:10543000C2D10023244A1360214A1370214A1370F9
:105440001C4A82F8DD3182F8DE31B2F8193223F0DD
:105450003F03A2F819321D4A136801331360072B6A
:1054600010D01A4B1B680C2B02DD0C22174B1A6054
:1054700002B010BD43F004030E49A1F819327D2A91
:10548000F6DCAFE70020124B9847124B1B688DF8F3
:1054900000301A0A8DF801201A0C8DF802201B0E1C
:1054A0008DF803306A46252122200B4B9847D8E718
:1054B00051014000B01600201C0E0020D901400010
:1054C0003D0E00203C0E0020280E0020240E00205F
:1054D000BDCA400030110020DDC140002DE9704FF1
:1054E000C0F164050846184B984782468B46174C16
:1054F00004EB4514164DD4E90023A84752465B46F9
:10550000A84752465B46A84780468946D4E902230D
:1055100050465946A84752465B46A8470D4E42465C
:105520004B46B04780468946D4E904235046594645
:10553000A84742464B46B047D4E90623B047064B3E
:105540009847BDE8708F00BFC9ED40001041410091
:1055500071EE40000DEB400061F44000F8B5224BC5
:105560001B680BB3204C0F26204D102702E054F887
:10557000063FCBB13046A84723681B788342F6D15B
:105580003846A84723685B788342F0D11120A847AA
:1055900023689B788342EAD11220A8472368DB78EE
:1055A0008342E4D1A088F8BD0F20104EB0470446D6
:1055B0001020B04705461120B047A0F5A65010387E
:1055C00004EB840404EB840400EB840305EB850501
:1055D00003EB45031BB223EAE37303EB830303EB03
:1055E0008300800080B2F8BD94000020B5B8400070
:1055F0002DE9F04F85B00C46C0F1640A0846344BE3
:105600009847804689462046324B9847CDE90001AD
:10561000314D05EB4A15314CD5E90023404649464A
:10562000A04742464B46A047DDE90023A0472C4E49
:10563000B0472C4FB84782468B46D5E902234046F7
:105640004946A047DDE90023A047DFF8B0800246C5
:105650000B4650465946C047CDE90201D5E904231F
:10566000DDE90001A04782468B46DDE90201B04733
:10567000B84702460B4650465946C047B047B84760
:10568000D5E90623C047B0470546174B9847174B47
:105690009847B8470CA3D3E90023A047B047044676
:1056A00001462846124B984728B912492846124B02
:1056B000984720B10F4C204605B0BDE8F08F2C462E
:1056C000F9E700BFAFF300801F85EB51B81EF13F33
:1056D00085ED4000A5ED40001041410071EE400015
:1056E00061F44000C9ED40005D5540006DF640009A
:1056F00095FA40000000204159FA40000DEB4000AF
:105700002DE9F04F83B08B46C0F164040846344B5A
:10571000984706460F465846324B9847804689467A
:10572000314B200103EB000A304D1858A847304C8C
:1057300032463B46A04732463B46A04742464B4690
:10574000A047CDE90001DAF80400A84732463B46FD
:10575000A04742464B46A047264E02460B46DDE98F
:105760000001B047804689465846234B9847DAF8EF
:105770000810224B9847A84702460B464046494628
:10578000B04780468946DAF80C00A84702460B4627
:1057900040464946B0471A4EB0470746194B98470E
:1057A000194B9847A8470CA3D3E90023A047B0475B
:1057B000044601463846154B984728B914493846DF
:1057C000144B984720B1124C204603B0BDE8F08F2F
:1057D0003C46F9E7AFF300801F85EB51B81EF13F5F
:1057E00085ED4000A5ED4000403D4100C9ED400081
:1057F00071EE40000DEB400075F640001DF74000D3
:1058000061F440005D5540006DF6400095FA40009F
:105810000000204159FA400008B51420064B984773
:10582000392801D0002008BD1520034B98473028A7
:1058300014BF0020012008BDB5B8400000000000E2
:105840002DE9F04F89B08E4BB3F909328D4A11889A
:105850000B445B101FFA83F8A2F800801BB2772B71
:1058600002DC09B0BDE8F08F06460920864B984758
:10587000002800F0D280824BB3F9BD80B8F5487F94
:10588000A8BF4FF44878B8F1000FB8BF4FF00A082E
:105890001D46A3F8F1817D4B984781467C4C3046EC
:1058A000A0477C497C4B984707464846A04701469D
:1058B00038467A4B9847824695F8DD01A047784BE9
:1058C000984769A3D3E90023764CA047764B9847C5
:1058D0005FFA80F9754B984775495046754B984764
:1058E00000283FD1744D0224724F55F8041F5046D2
:1058F000B84710B901343D2CF7D1C4F1650080B22E
:105900001FFA89F398422FD840466C4B98476C4950
:105910006C4B98476C4B984781B248466B4B984705
:105920006B4B9847564BA3F8F3016A4A137801333F
:10593000DBB213703C2B94D9514B93F8DD31B21E7E
:1059400090453DD2B8EB560F1DDA0133E221614A92
:105950001170FF2BA8BFFF23DBB25F4A13705F4AB1
:1059600013707EE70124C8E71FFA88F1C0B2574BD5
:1059700098474B4B98473EA3D3E90023584CA04788
:10598000584B9847CCE7A6EB9601414504DD01331F
:10599000EC21504A1170DCE7A6EBD601414504DD4D
:1059A0000133F6214B4A1170D3E706EB86014E48CE
:1059B000A0FB0101A6EB51164645A8BF0133C8E77D
:1059C000B21C9045C8D906EB5602424507DA013BA6
:1059D000E221404A1170342BB8BF3423BCE706EBF8
:1059E0009602424504DA013BEC213A4A1170F2E793
:1059F00006EBD602424504DA013BF621354A117026
:105A0000E9E706EB86023848A0FB020206EB5216D5
:105A10004645A8BF03F1FF33DDE7194B93F8DD01DD
:105A20001B4B9847DFF87890C84713A3D3E90023AE
:105A3000DFF8B8A0D0472B4B9847C8470AA3D3E953
:105A40000023DFF86090C847174B98475FFA80FA49
:105A5000BAF1270F4CDC66231F4A13701F4A1370DC
:105A6000FFE600BFAFF300806666666666660440C8
:105A7000666666666666EE3F7B14AE47E17AF43F83
:105A8000B0160020381300202D0140005D55400065
:105A90006DF6400000007A4485F840001DF7400094
:105AA000C9ED4000C5F0400021F44000594D4000D0
:105AB0001740C74495FA4000CC48410075F64000B5
:105AC000DD499F3C09F54000F5FA4000F1554000E2
:105AD000A9FA4000140E00203D0E00203C0E0020CC
