:020000040040BA
:10000000184D002085954000819540008195400065
:1000100081954000819540008195400000000000DE
:10002000000000000000000000000000819540007A
:1000300081954000000000008195400001B840001B
:10004000819540008195400031C14000819540007C
:1000500089BF40008195400081954000000000006C
:10006000A563400081954000A56740008195400050
:10007000819540000000000081954000819540007E
:1000800081954000000000000000000081954000C4
:10009000819540008195400081954000E9B0400085
:1000A00081954000819540000000000000000000A4
:1000B000000000008534400081954000819540009B
:1000C00010B5054C237833B9044B13B10448AFF392
:1000D00000800123237010BD700A00200000000082
:1000E0005C3E41000C4B43B10C480D4910B5AFF3D9
:1000F00000800C48036823B910BD0A48036833B96F
:100100007047094B002BF7D0BDE810401847064B4D
:10011000002BF5D0184700BF000000005C3E4100F6
:10012000740A00205C3E410000000000074A1423CE
:1001300003FB0023DB7913F0020304D01628CCBFA5
:100140000020012070471846704700BF901600201D
:10015000074A142303FB0023DB7913F0040304D0C4
:100160001628CCBF0020012070471846704700BFFA
:100170009016002008B5094B01469847084A20B957
:10018000142303FB012381209871142303FB012115
:10019000CB7943F01003CB7108BD00BF5101400083
:1001A0009016002010B50446C0F3C700064B2A3055
:1001B000984704F007040123A3401840C0B2003060
:1001C00018BF012010BD00BFBDA04000162801DCF3
:1001D000014B1847704700BF75014000162808B54D
:1001E00001460FDC084B9847084A20B1142303FB53
:1001F000012380209871142303FB0121CB7923F084
:100200001003CB7108BD00BF5101400090160020C3
:10021000162807DC044B142202FB0030C37943F09C
:100220000303C371704700BF90160020162807DC37
:10023000044B142202FB0030C37923F00203C37184
:10024000704700BF9016002000B516281ED8DFE8C2
:1002500000F00C13171F2327292B2F333537393B79
:100260003F414547494B4D4F5100090734D50021C7
:10027000117003221A7009E0002111700422F9E7BD
:1002800011F0080111D00021117019705DF804FB04
:10029000022111700622EDE7022111700722E9E721
:1002A0000221E5E70221E8E7022111700122E1E7DE
:1002B000002111700522DDE70121FAE70121E8E7BD
:1002C0000121EAE70021E8E7032111700022D1E7CC
:1002D0000321EAE7032111700222CBE70321D3E7D0
:1002E0000321CAE70321E4E70221E2E70221CBE789
:1002F0000221EAE70321CCE72DE9F04F304F3C78AB
:1003000085B00546002C54D1162852DC2D4BDFF861
:10031000E0A098472C4B142101FB053101264FF03A
:100320000A080DF10F020DF10E0381F81580CC754E
:100330000C768E75E8B2C979244CA0479DF80F90D1
:1003400009F12A091FFA89FB5846D0479DF80E404B
:1003500006FA04F40443E4B221465846DFF894B0A8
:10036000D8471B4B1B48019398471B4A1B480092D8
:10037000904741465FFA89F0DFF87C80C047009AD9
:100380001748904710212046C047019B11489847C5
:100390003A20D0478119C9B23A20D847114B0321DE
:1003A00002209847A5F10903B3423E7004D80E4BD2
:1003B000984705B0BDE8F08F112DFAD10B4BF7E748
:1003C0009C100020110240009016002049024000BD
:1003D0001D664000B52B410001654000581C4100DE
:1003E0005F1C4100E1B1400029A140002DA2400066
:1003F000BDA0400055A04000316540002DE9F74305
:10040000394F00233D788DF80630032306468DF8DA
:100410000730002D65D1162863DC344BDFF8E4800B
:10042000142404FB00340DF10702E1790DF10603F9
:10043000C0B2C0472572E571A5716572A572E572FB
:1004400025736573A573E5732574E57465769DF86A
:100450000750274CDFF8B0802A352846A0479DF882
:1004600006300121994020EA0101C9B22846C0475F
:100470003A20A047411CC9B23A20C047A6F109035F
:10048000012B254603D9A6F11103012B1CD8DFF857
:100490007C902E20C84704463020C84781463A2029
:1004A000A84724F0E00189B2054641F020012E2042
:1004B000104CA04749463020A047691CC9B23A20D9
:1004C000C0470D4B00221A70132E01D0152E02D1F9
:1004D0000A4B00221A700A4B06210120984701237B
:1004E0003B7003B0BDE8F0839C1000209016002004
:1004F000BDA040006DA04000B7000020900A002081
:10050000E1B140004902400055A04000C9A04000B0
:10051000F0B587B00C4615461E4601AA0F230121EF
:100520005C4FB847012840F0B3809DF80B305A4922
:100530009DF804709DF810E0142000FB041023F0D7
:100540000F0203F00F0342EA0E028DF80B304FEA60
:10055000C70E00230EF4E06E0376837D42EA0E029E
:100560000133A0F80D2007F01F028DF804208375D9
:1005700042F00102BB07C27102D52046474B9847A3
:100580009DF805309DF83420B3401340142202FB3F
:100590000412D07910F0080F41484CD0567EF7076E
:1005A00049D513F0400744D0B0F90070082FD7BFE9
:1005B000013726F00106078003F0BF03C8BF567657
:1005C0000D449DF8070085F825329DF80620142378
:1005D00003FB041342EA0022A3F809209DF8090056
:1005E0009DF8082042EA0022A3F80B207CB99DF870
:1005F0000D209DF80C3043EA0223A1F80F309DF83E
:100600000F209DF80E3043EA0223A1F811309DF827
:100610000B30142202FB041203F00F03022C13759B
:1006200010D15A1F012A09D9042B22D1B1F9FF3167
:1006300006E00780C4E700220280C1E7B1F9013279
:10064000A1F831309DF80A30FF2B1CD0032B1AD0B3
:10065000142202FB04120820D3744A889A424FF0F5
:10066000050300FB043011D00E4B9847012007B062
:10067000F0BD032B02D1B1F9FD31E1E7022BE1D14D
:10068000B1F9FB31DCE7052000EBC400064BECE7D9
:100690000020ECE7C13E400090160020110240000F
:1006A000FC1000201533400069334000F0B585B0E0
:1006B0000D46174601211E460DF105020823274C61
:1006C000A047C1B2012946D1254C142303FB0543A1
:1006D00000221A769A7D01329A759DF8052042F023
:1006E0000100D87112F0100318BF0B4684F8D63100
:1006F000930702D528461B4B98479DF806309DF876
:100700002C00E219B340034092F825629DF82800BE
:100710003040034382F82532142303FB05459DF83E
:100720000B309DF80C202B7594F8D331EA7493426A
:100730000FD094F8D431012B03D8013384F8D4318D
:1007400004E0002384F8D43184F8D321084605B0AE
:10075000F0BD0023F2E70021F8E700BFC13E4000F2
:10076000901600201102400010B5174C94F8D521C6
:1007700002F0FB03532B01D0002010BD07211920EC
:10078000124B984701280DD194F8D53184F80431E3
:1007900094F8D23123F0010384F8D231002384F895
:1007A000D73110BD94F8D7310133DBB2032B84F875
:1007B000D731E1D994F8D231002023F0010384F835
:1007C000D23184F8D70110BD90160020B53D40000D
:1007D00038B51A4C1A4B94F8D321082119209847A0
:1007E0000128254615D194F8D33184F803310C2023
:1007F000144B984710B90C20134B984795F8D231F9
:1008000023F0020385F8D231002385F8D731012087
:1008100038BD94F8D7310133DBB2032B84F8D731DC
:1008200088BF94F8D2314FF0000082BF23F002035A
:1008300084F8D23184F8D70138BD00BF901600206B
:10084000B53D40005101400075014000F0B5012365
:1008500085B00F4601AA19461F4C0646A04701283D
:100860002FD11E4D142101FB075100248B7D0C76E6
:1008700001338B7538461A4B98479DF80420CB7985
:1008800002F0040223F00C031343CB71B5F9E971B4
:10089000144D2146C7F307223046A84701280146D8
:1008A00014D1FAB23046A84701280FD10E4F3A5D55
:1008B000E1B23046A847012808D10134082CF6D10E
:1008C00002E00A4B0020186005B0F0BD074B002085
:1008D0001860074B1870F7E7C13E400090160020E3
:1008E00011024000B53D4000601C0020600B00205C
:1008F0006A0B00202DE9F04385B00D461746984657
:1009000001AA0B230121904CA047012840F0178138
:100910008E49142606FB05160024B37D3476013378
:10092000B37528468A4B9847F3799DF804209DF8C3
:1009300006E09DF808C09DF80C0002F0040223F0C8
:100940000C031343F3719DF807309DF80B204EEA1A
:10095000032E9DF809304CEA032C9DF80A30A6F8C6
:100960000BC043EA02239DF80D2040EA02200FFA53
:100970008EFE1BB200B29DF80E20A6F809E0032DF2
:10098000A6F80D30A6F80F00F2743AD1714EDFF8D8
:10099000DCC1D6F80090E1450DD9DFF8D491346080
:1009A00099F80060DFF8CCC12F2E0ED82CF816E095
:1009B000013689F800609BB243EA00436648036051
:1009C0009DF8053003F001035CE0BCF9006089F894
:1009D0000040B6460CEB04090234B9F902904E45CA
:1009E000B8BF4E46CE45A8BFCE465E2CF2D1A6EB90
:1009F0000E06B6F5FA7F594CD4BF012600262670A4
:100A0000D9E7042D35D1564EDFF860C1D6F80090F5
:100A1000E1450DD9DFF86091346099F80060DFF8A6
:100A20005CC12F2E09D82CF816E0013689F8006039
:100A30009BB243EA00434B48C1E7BCF9006089F828
:100A40000040B6460CEB04090234B9F902904E4559
:100A5000B8BF4E46CE45A8BFCE465E2CF2D1A6EB1F
:100A60000E06B6F5FA7F404CD4BF0126002626704C
:100A7000DEE7082DA4D19DF80530C3F340030BB980
:100A8000A1F8FDC10F449DF8300097F8254203FA04
:100A900008F81423204003FB051340EA0808500817
:100AA000A3F80D00D30787F8258225D5042D07D19B
:100AB00091F8DC3163F07F0381F8DC3101203FE005
:100AC000032D04D191F8DC3143F04003F4E7062D07
:100AD00004D191F8DC3143F02003EDE7052D04D17A
:100AE00091F8DC3143F01003E6E7072DE6D191F8E9
:100AF000DC3143F00803DFE7042D04D191F8DC3149
:100B000003F07F03D8E7032D04D191F8DC3123F003
:100B10004003D1E7062D04D191F8DC3123F0200306
:100B2000CAE7052D04D191F8DC3123F01003C3E7A7
:100B3000072DC3D191F8DC3123F00803BCE7002076
:100B400005B0BDE8F08300BFC13E40009016002014
:100B500011024000B0100020940A00205C0B00201D
:100B6000B8100020F80A00205D0B00203F771B0022
:100B7000640B0020980A0020650B0020FC0A00206E
:100B80002DE9F04186B00E4690460C2301AA0221C1
:100B90001E4C1F4FA0470128054635D1142404FBE5
:100BA00006740021A37D21760133A3753046194BCD
:100BB00098479DF806209DF80530217343EA0223EB
:100BC000A4F809309DF808209DF80730E57243EA43
:100BD000022307EB0802A4F80D3092F825129DF8C5
:100BE00030300B4082F825322E200B4B9847B4F959
:100BF0000930A7F8F1312846142303FB06760023B9
:100C0000F37406B0BDE8F0810020F5E7C13E400076
:100C10009016002011024000C9A0400010B5052028
:100C2000164CA047164910B90620A04730B1B1F9BB
:100C30006D00B1F981309842B8BF1846A1F8EB01B8
:100C40000320A04710B90420A04730B1B1F94500F6
:100C5000B1F959309842B8BF1846A1F8E901072008
:100C6000A04718B1B1F99530A1F8ED310820A0479F
:100C700018B1B1F9AB30A1F8EF3110BD2D01400032
:100C8000901600202DE9F84F0F464F4E00210546E3
:100C9000B0474FF0000800B14546012F4DD1DFF8B5
:100CA00064B14A4FDBF80040DFF85CA1002CD94664
:100CB0000DDC38682946D0470134454B3860CBF805
:100CC0000040B3F90000434B984704462DE03D68CF
:100CD000414B424C19682846A0472946A04729465F
:100CE000A0473F4B834619682846A0472946A0479E
:100CF00001465846D0473B4B834619682846A047D3
:100D000001465846D047384B1968D0473749044602
:100D1000B04780B93649374B2046984700B1344C2C
:100D2000C7F800800023C9F800302046324B9847AE
:100D300000B2BDE8F88F0024F2E7022FF5D1DFF80A
:100D4000CCB0DFF8C490DBF800402C4F002CDA4622
:100D500008DC38682946C84701343860CBF80040C1
:100D6000274BAEE73D681C4B1C4C19682846A04732
:100D70002946A0472946A047194B834619682846AB
:100D8000A0472946A04701465846C847154B834609
:100D900019682846A04701465846C847124B1968AB
:100DA000C84712490446B04758B91149114B20466B
:100DB000984700B10E4CC7F800800023CAF80030F5
:100DC000B3E70024F7E700BFB5DB4000281100209F
:100DD0001E110020BDD740006C3B410065D840008B
:100DE000703B4100743B4100783B41000000A04152
:100DF00000006344C9DB4000F1DB40002C110020FF
:100E0000201100200811002055D640000C110020B0
:100E10002DE9F04387B0894617460F2301AA012127
:100E2000494C0646A0470128804640F089809DF83D
:100E30000B509DF80A30454C25F00F0545EA131577
:100E40009DF804301421DB0001FB094103F4E06349
:100E50001D4300230B768B7D01338B7548463C4B3D
:100E600098479DF80420CB799DF80C0002F004020D
:100E700023F00C031343CB719DF807209DF8063037
:100E800043EA0223A1F809309DF809209DF80830B3
:100E900043EA0223A1F80B309DF80A209DF80B309D
:100EA00042EA0322A1F80D209DF80D20274440EAD4
:100EB00002209DF80E2097F825E2CA749DF838208C
:100EC00000B202EA0E023E2EA1F80F0087F825229A
:100ED00027D1B4F99F011F4B98471F4B41469847B4
:100EE0001E4B1880B4F999316433A4F89931B4F9E0
:100EF0009B316433A4F89B31B4F99D316433A4F879
:100F00009D31A6F13F00012809D89DF80B309DF8CE
:100F10000D2023F00F0343EA1213114A137001202E
:100F20000FE03C2E08D10F4A108003F00F03A1F808
:100F30000D508DF80B30E4E73D2EE2D10A4AF3E77D
:100F4000002007B0BDE8F083C13E400090160020AD
:100F500011024000BDD74000850C40001E1100204A
:100F6000900A0020680B0020660B00202DE9F04F4E
:100F7000B14EB6F8202212F0200F89B0B24603D14C
:100F8000AE4A1268002A6ADDAD484FF4006202637F
:100F9000AC480278551C12F00102057040F0B28096
:100FA000A94D03952E78701CC0B2162895BF2A460D
:100FB000039810700270A54A04921078012810D18D
:100FC000A34A0691962005939047A24A059B15785F
:100FD000069985421FBF049D10704FF0000E85F8E2
:100FE00000E09D4A05921078012815D19720984A73
:100FF000079106939047DFF87CC2069B9CF800504F
:101000000799854208D0059ADFF86CE28CF8000059
:10101000002515708EF800509048914A079106936C
:101020009047069B0799162E00F2A081DFE816F084
:101030001C007F006E008B009700A300AF00BB0078
:10104000C700DF00D300EB00F700260132013E01AC
:101050004A01560162016E017A01860192017848C7
:101060004FF40062426393E77E4C0220A047804623
:101070000320A04780445FFA88F83546334634465B
:101080004FF007095F210A27B8F1000F07D114229A
:1010900002FB06A2D079C00744BF822090711422BF
:1010A00002FB06AB9BF80620100640F1D68102F049
:1010B0003F038BF8193000216B4B384698470128C5
:1010C0009BF8063040F0AB81DF07304640F150819D
:1010D000664B98479BF8063023F001038BF80630E7
:1010E000142202FB06A29379990740F14A815444E5
:1010F000304694F825321D40002393715C4B84F8F0
:1011000025529847012009B0BDE8F08F554C0120C9
:10111000A04780460020A047002580445FFA88F859
:10112000344637464FF017095F212B46ACE74D4B4D
:10113000042098470025804634464FF00F091F21B0
:101140002B461427A0E7474B162098473446804685
:101150004FF01B09F325042102231E2794E7414B7E
:10116000172098471F2580464FF01E0910210523A0
:1011700003242F4688E73B4B1320984704218046E1
:101180004FF02309E32502230C4622277CE7354B49
:10119000142098474FF0260980461F25102105236B
:1011A0000424232770E72F4B112098474FF02B0979
:1011B0008046F325042102230524262764E7294BD2
:1011C000052098474FF03F0980464D4640210623B1
:1011D0000724322758E7234B0E2098474FF0340955
:1011E0008046C72508210323062429274CE71D4BE9
:1011F0000D2098474FF031098046F8250121002342
:101200000624282740E7174B0F20984706238046DF
:101210004FF037093F2540211C462A2734E7114B60
:10122000072098474FF02F0980463F25402106238D
:101230000524192728E700BF901600201811002068
:10124000000E0E40700B0020710B0020B600002035
:10125000BDA0400023110020B500002050140E4016
:10126000293A4000A5014000B53D4000CD014000B5
:10127000FD034000BB000020B4000020C04B18203C
:1012800098474FF05C098046CF25202105230B2489
:101290003327F9E6BA4B192098474FF05E0980468C
:1012A0003F25802107230B243427EDE6B44B1A2079
:1012B00098474FF060098046FC25022101230C2449
:1012C0003527E1E6AE4B1B2098474FF06209804678
:1012D000F325042103230C243627D5E6A84B1C2034
:1012E00098474FF064098046CF25202105230C2420
:1012F0003C27C9E6A24B1D2098474FF0660980465F
:101300003F25802107230C243D27BDE69C4B15205B
:1013100098474FF068098046FC25022101230D24DF
:101320003F27B1E6964B122098474FF06A09804656
:10133000F325042103230D243E27A5E6904B10201E
:1013400098474FF06C098046CF25202105230D24B6
:10135000402799E68A4B1E2098474FF0190980468E
:10136000FC2502210023032441278DE600258BE67E
:10137000844B98479BF8073023F004038BF8073021
:10138000AEE6039A1278002A47D0013A03990A7010
:10139000142202FB06A203F07F0393717A4A4FF4F2
:1013A00000631363B8F1000F40F05381774B304670
:1013B0009847142303FB06A30A225A75142303FB40
:1013C00006A300221A769A7D01329A75B8F1000FB1
:1013D0003FF498AE142404FB06AA9AF817209AF852
:1013E00016301344032B10D9991A092B4FF00A0217
:1013F00002FB01F292FBF3F288BF00238AF815206A
:1014000084BF8AF817308AF81630002E7FF47AAE3F
:101410005F4A13680133136074E61622B6E79F072C
:1014200026D582229BF808308BF80620039A0133D8
:101430001278DBB28BF808306AB1013A0399032BBA
:101440000A7015D914243046524B04FB06A698475F
:101450000023B37156E61622F0E79AF8D22112B3B0
:101460009AF8F700C0071ED5D30714D54A4B984702
:10147000B8F1000F40F0F1805444484694F825320A
:101480001D4084F82552142404FB06A6434B9847BC
:1014900086F8188036E612F0020201D0404BE6E7EB
:1014A0008AF8D221E4E7132E0FD1059A1278002A88
:1014B00040F0B3803B4B0B211A783B4B3F209847C1
:1014C0000128D5D1059B1870D2E7152E14D1DFF86D
:1014D000E0B09BF80020002A40F09F80314B1A7842
:1014E000314BC2F16402D2B20B214020984701284F
:1014F000BED18BF80000BBE7142E0ED1049A1278EF
:10150000002A40F08A80294B0B211A78264B3E2076
:1015100098470128ACD1049BD5E7162EA8D801A284
:1015200052F826F0B5154000B5154000B51540003D
:10153000D9154000D9154000D9154000D9154000F3
:10154000D9154000D9154000231640002F16400041
:1015500043164000CB154000E7154000F31540004E
:10156000FB154000031640000B1640001316400008
:101570001B164000711440007114400037164000E3
:10158000A5014000DD014000000E0E40F9024000C0
:101590006C0B0020FD0340006907400069334000E8
:1015A000D1074000BB000020B53D400023110020C2
:1015B000B40000203846404F019100952246314644
:1015C000B84700287FF4EAAE52E70191384600950B
:1015D00022460C21394FF3E73846394F0095224611
:1015E0003146B847EDE7009522460D213846354F84
:1015F000F7E7009522460E21F8E7009522460F21D5
:10160000F4E7009522461021F0E7009522461121CB
:10161000ECE7009522461221E8E700952246314684
:10162000E4E70095224609213846274FD9E700957F
:1016300022460A21F8E73846009522461621234F14
:10164000CFE70AEB040292F825322B4082F82532CC
:101650000EE748461E4B9847B0E6142303FB06A14D
:1016600003FB06A3CA7D0132CA750A7E0132D2B2DB
:10167000242A88BF24220A761A7E232A7FF6AAAE5D
:101680005444484694F82522154084F825520024F5
:101690005C729C72DC721C735C739C73DC731C74D4
:1016A0005C749C740B4B984730460B4B98470C2E40
:1016B00008BF8AF8D6418DE611054000AD0640000E
:1016C000F5084000110E4000810B40004D0840001D
:1016D00069334000153340002D0240000000000037
:1016E000C0F57F70F8B50330234B244E244C254DB4
:1016F000254F9847B04714A3D3E90023A04714A36C
:10170000D3E90023A847214CA047B04702460B4627
:1017100011A1D1E90001A84711A3D3E90023B847DB
:10172000A0471B4B1B499847B0471B4B98470246A5
:101730000B460DA1D1E90001A8470DA3D3E9002371
:10174000B847A047F8BD00BF6666666666660A4091
:101750000000000000F88F4000000000001DE04085
:10176000000000000088C3400000000000DCAE4024
:101770006666666666127140BDD7400011CF4000B4
:10178000B9CF40000DD2400051CC4000A9D5400057
:10179000CDD940008D71903C25C540002DE9F04F1A
:1017A000904D914B85B09847B5F819325B060446C9
:1017B0003ED58E4B98478E4B1A68A11A312902D814
:1017C000944280F00C811C608A488B4B8B4C8C4E71
:1017D0008C4F98478C4B40209847042828BF042002
:1017E000C3B20193894B1878B047236818443B680B
:1017F000206001333B60864B1878B047636818441B
:101800007B68606001337B60019B022BB84613D973
:10181000804B1878B047A3681844BB68A0600133B8
:10182000BB60019B042B0AD00023C8F80C300FE0EA
:10183000794B00221A60BEE70023BB60F4E7774BC8
:101840001878B047E3681844FB68E0600133FB6038
:10185000DFF8B091DFF8A4814FF0580A0027019B10
:10186000BB4240F3B080D9F800204F2A13DDD8F8EE
:101870000030B3FBF2FBBBF57A7F50466FD9684B63
:101880009847D9F800309B10C9F80030D8F80030DC
:101890009B08C8F800300137042F09F1040908F14A
:1018A00004080AF1010ADAD15E4B1F68F8B2B047AA
:1018B00054F82730534A184452F8273044F8270088
:1018C0000133172B42F8273090460DDDB0FBF3F2C1
:1018D00080089B1044F8270048F82730D2002121C7
:1018E000B2FBF1F2A5F807224F4B504F1B68019352
:1018F0004FF0000AD346019B03EB0A095FFA89F017
:10190000B04758F8291054F82930013118440F29EC
:1019100044F8290048F8291013DDB0FBF1F03978BC
:101920000AF58073002957D105EB430300EB8000D3
:101930000321B0FBF1F0A3F8030048F829B044F804
:1019400029B00AF1010ABAF1020FD4D1384B1B7B3E
:10195000002B44D0374B05B0BDE8F04F1847364B4D
:1019600098475846354B98473549364B9847012F8D
:10197000834613D10820344B9847002881D133493E
:10198000334B58469847334B02939847029BA5F830
:10199000FD0158469847304B588072E707F1FC0329
:1019A00003932A492A4A90472A4A02929047039B66
:1019B00005EB4303A3F80300029A58469047264BD1
:1019C00023F817005DE70023C9F80030C8F800309D
:1019D0005046194B98475EE705EB4303ABE705B06C
:1019E000BDE8F08F90160020C9B8400041B3400018
:1019F000CC0B002050140E40293A4000740B0020FC
:101A0000D9BC4000A00B0020BDA040002211002046
:101A1000B9000020BA00002098100020B800002073
:101A200035334000883B41008C3B4100CE10002004
:101A3000501C0020B9BE400069334000E116400050
:101A40000000C84265D840002D0140000000204140
:101A5000CDD94000F1DB4000881600202DE9F0438D
:101A6000A848A94F87B0B847A84B98470128064611
:101A70001BDDA74C237843B90220A64B03219847CE
:101A8000012323705620A44B9847A44B00221A60D0
:101A9000A34BD97852291C4600F06B8509D84429FC
:101AA00000F05281502900F0D583304607B0BDE8E0
:101AB000F08354294FD05729F7D193F804805979EE
:101AC000ADF808204C23ADF81030ADF80A307E2375
:101AD000ADF812308523ADF80C3098234144ADF8B1
:101AE000143099230139ADF80E30ED231FFA81F936
:101AF000ADF8163004A902AB33F81200404504D803
:101B000031F81200484580F04C850132042AF3D1A7
:101B100031257C48B847302D40F04685814A824BBC
:101B2000494640469847013008BF32257548B847B6
:101B30000B23A370A57157237C4DE3703A20A8476F
:101B4000E0717E20A84720729820A8476072ED209F
:101B5000A847A07214E0764D442185F8221207218F
:101B600085F823121979342900F0B5802BD8312952
:101B70006FD009D8302947D0B5F82032002B94D047
:101B800067486C4B984790E7322900F094803329DE
:101B9000F2D15B79B5F81922412BB5F8203242F425
:101BA00080520BBF43F0110323F01003A5F820323D
:101BB000A5F82032A5F8192207BF02205E4B5F4B23
:101BC00002209847D8E7392902D004D83529D3D143
:101BD000B5F8203238E045290DD05329CCD1B5F8DD
:101BE000193243F48053A5F81932012385F82032C5
:101BF00085F82122C0E7B5F8193285F8202223F4B0
:101C00008053A5F81932F3E7B5F8193243F480533D
:101C1000A5F81932B5F8203243F00302A5F82022C6
:101C2000A279012A9CBF0222A27162796F2A04D193
:101C3000A1790020424B98479EE7632A02D1A179FF
:101C40000120F7E723F0020343F00103A5F8203257
:101C500092E7B5F819225B7942F48052A5F819226F
:101C6000B5F82022412B42F00501A5F820120DD134
:101C7000344B4FF400021A630122C3F8302295F866
:101C80001F3243F0030385F81F3275E7532B0BD146
:101C90002C4B4FF400025A630122C3F8342295F80A
:101CA0001F3223F00303EEE722F0040242F00102A8
:101CB000A5F8202260E7B5F8192299795879154BD3
:101CC00042F48052A5F81922B5F8202242F0090208
:101CD000A5F82022AFE7B5F8192242F48052A5F802
:101CE00019225A79432AB5F8202207D142F021025D
:101CF0009B79A5F8202285F824323DE722F02002C6
:101D0000D6E700BF50140E40293A40005969400000
:101D100004110020E1B140006933400000110020AF
:101D2000431B0020491B0020D9A84000BDA0400053
:101D30009016002025694000CD014000DD014000E3
:101D400031B24000000E0E406B23A370E14BE170F6
:101D500093F8C9202271B3F9F12162711212A271B4
:101D60005A78E27193F81D22227293F81E22627251
:101D7000B3F9E521A2721212E272B3F9E7212273DC
:101D800012126273B3F90922A2731212E273B3F949
:101D90000F22227512126275B3F90B2222741212ED
:101DA0006274B3F91122A2751212E275B3F90D2211
:101DB000A2741212E274B3F913222276121262761E
:101DC000B3F9F32184F82620121284F8272093F81F
:101DD0003D20D979A2765A7DE27693F829202277A0
:101DE0000D0701F0010248BF42F002024807597E88
:101DF00048BF42F00402C90793F8251248BF42F0D9
:101E0000080209B142F01002D97EA2774F0701F013
:101E1000010293F82D1048BF42F00402CD0793F859
:101E2000261248BF42F0080209B142F0100293F8AE
:101E30002F10E277080701F0010248BF42F00202CA
:101E40004F0793F8411048BF42F00402CD0793F8C2
:101E5000271248BF42F0080209B142F0100293F87D
:101E6000BF116277880701F0010248BF42F0020209
:101E7000490793F8D11193F828C248BF42F00402F1
:101E8000CF0748BF42F00802BCF1000F01D042F07A
:101E9000100284F83320B3F90B201F7D84F8202032
:101EA000121284F82120012F0CBFB3F90920B3F9D5
:101EB000FD2184F82220121284F82320B3F91F2078
:101EC00084F82420121284F82520B3F91D2084F808
:101ED0003120121284F83220B3F9332084F82D20F7
:101EE000121284F82E20B3F9312084F82F20121218
:101EF00084F83020B3F9152284F82820B3F917228A
:101F000093F8430084F82920121284F82A2010F054
:101F1000010200F0828193F8511084F82B10197996
:101F200084F82C106C4993F85B51B1F9001084F8D7
:101F30003410091284F835106849B1F9001084F89A
:101F40003610091284F837106549B1F9001084F889
:101F50003810091284F839106249B1F9001084F878
:101F60003A10091284F83B1093F87D1184F83C1064
:101F700093F8691184F83D1005F001016D0793F89D
:101F80006D5148BF41F00401ED0793F8315248BF4D
:101F900041F008010DB141F0100193F86FE184F8B0
:101FA0003E101EF0040F0EF0010193F881E118BFFE
:101FB00041F004011EF0010F18BF41F008010DB1FE
:101FC00041F0100184F83F10B3F9451084F8401037
:101FD000091284F84110B3F9951084F842100912DF
:101FE00084F84310B3F96D1084F84410B3F9591014
:101FF00084F84510091284F84610B3F9811084F86A
:102000004710B3F9491084F84810B3F95D1084F80B
:10201000491093F8511084F84A1093F8651084F829
:102020004B10B3F947E04FEAAE0184F84C10CEF301
:10203000852184F84D10B3F95B50A91084F84E1037
:10204000C5F3852184F84F10810793F8551048BFD8
:1020500042F00202400748BF42F00402C90748BFED
:1020600042F00802BCF1000F01D042F0100293F8D8
:10207000571084F85020880701F0010293F8693066
:1020800048BF42F00202490748BF42F00402DB07A2
:1020900048BF42F00802BCF1000F01D042F010022C
:1020A000114B83F851200B4A92F86B0000F00101AC
:1020B000840748BF41F00201440792F87D0092F87E
:1020C000294248BF41F00401C00748BF41F0080160
:1020D0000CE000BF90160020680B0020660B00206B
:1020E0008E0A00208C0A0020431B00200CB141F016
:1020F000100183F8671092F87F1001F0010011F0D1
:10210000020F18BF40F00200490792F8911048BF33
:1021100040F00400C90748BF40F008000CB140F08F
:10212000100092F8931083F868008C0701F001000A
:1021300048BF40F00200490792F8A51048BF40F0A0
:102140000400CC0792F82A1248BF40F0080009B1F9
:1021500040F0100083F86900B2F99710B2F96F00EF
:102160008900000101F00C0100F0300001430EF085
:10217000030E41EA0E0183F85210B2F983100901EF
:1021800001F0300105F003050D4383F85350B2F917
:10219000611183F85410091283F85510B2F97511C2
:1021A00083F85610091283F85710B2F9351083F8E6
:1021B0005810091283F85910B2F90D1083F85A100B
:1021C000091283F85B10B2F9211083F85C10091230
:1021D00083F85D10B2F9C11083F85E10091283F81C
:1021E0005F10B2F9D51083F86010091283F86110FE
:1021F000B149097883F86210B2F90F1083F86310BF
:10220000091283F86410B2F9112083F865201212C4
:1022100083F8662083F86A70B2E493F85710CD070C
:1022200002D593F8651078E693F86B10C90702D5CC
:1022300093F8791071E693F87F10CD0702D593F8E3
:102240008D106AE693F89310C9077FF568AE93F88E
:10225000A11062E6994D5B796A789A4207D1E978D4
:10226000E279914203D1A978A27991420ED06B70A4
:10227000A379AB70E379EB70237A2B71637A6B717E
:10228000A37A2279AB71E37A2A70EB718C4B1A78BE
:10229000AAB901221A70A9782B786A7889488A4FDE
:1022A000B847A979E8786A791423EB71874B01F56F
:1022B000FA6119602B790090854D8248A847854BBB
:1022C000854D00221A604223A3705023E370B5F9B4
:1022D000FB3123711B1263710820804B9847002843
:1022E00000F0DE80B5F9AB30A3711B12E371B5F9D4
:1022F000FF3123721B126372B5F90132A3721B12F4
:10230000E372B5F903220A2192FBF1F292B2642A38
:1023100028BF64222273B5F9053293FBF1F39BB217
:10232000642B28BF6423637395F8DC31A373B5F97C
:10233000EB31E373B5F9E93123741B126374B5F91A
:10234000ED31A3741B12E374B5F8193223751B0A1F
:10235000637595F81B32A3750023E918E218013361
:1023600091F82512D1750D2BF7D195F8BF2102F008
:102370000103900748BF43F00203510795F8D121AC
:1023800048BF43F00403D20795F8282248BF43F022
:1023900008030AB143F01003514F84F824303A2067
:1023A00095F8DF3184F82530B84784F826007E2080
:1023B000B84784F827009820B84784F82800ED2013
:1023C000B84784F82900B5F9EF3184F82A301B1298
:1023D00084F82B30B5F9073284F8373095F8DD31C1
:1023E00084F8383095F8DE3184F8393095F81C32AD
:1023F00084F83A303B4B3C4D18683C4FA8473C4B67
:102400001B7884F83D3080B23B7B84F83B00000AA7
:1024100084F83C00002B46D03649DFF8E480786829
:10242000C047A84780B284F83E00000A84F83F0005
:102430003049B868C047A84780B284F84000000A15
:1024400084F841002C4A2D481378002B7AD001786B
:1024500084F82C308B4255D901EBC103134484F826
:102460002D105A7884F82E209A7884F82F20DA7864
:1024700084F830201A7984F831205A7984F832208F
:102480009A7984F83320DA7984F834201A7A5B7ADE
:1024900084F8363084F835204B1C0370FFF770BB8E
:1024A000B5F9FD3120E784F83E3084F83F3084F8F8
:1024B000403084F84130C5E7900A0020601C0020BD
:1024C000D10B002060140E401136400098110020FE
:1024D000DF364000C8100020901600202D0140007B
:1024E000BDA04000981000203DDC4000501C0020A2
:1024F000AC00002000002041C3180020D00B0020B9
:1025000065D84000002384F82D30537884F82E30AD
:10251000937884F82F30D37884F83030137984F8A6
:102520003130537984F83230937984F83330D37969
:1025300084F83430137A84F83530537A84F836309E
:102540000123AAE784F82C3084F82D3084F82E304B
:1025500084F82F3084F8303084F8313084F8323009
:1025600084F8333084F8343084F8353084F83630E9
:1025700093E71A795D79DFF83880D97097B23D44D6
:10258000013DADB2C2F107022A449A705C1DAF4210
:102590003FF6F6AA3846C047013704F8010FBFB22C
:1025A000F5E73025FFF7B5BA3125FFF7BFBA00BF11
:1025B000BDA0400010B50C4B04462B2098472206C6
:1025C0004ABF40F0010100F0FE01C9B2630648BFF6
:1025D00041F00201054B58BF01F0FD012B20984747
:1025E000034B5C7110BD00BFBDA0400055A0400072
:1025F00090160020000000002DE9F04FB64BA5B06A
:1026000098470128824640F3B781B44C2379462B82
:102610004CD005D8312B00F01A81B14B9847F4E02B
:10262000522B00F08181572BF7D14C22ADF80820B6
:10263000ADF802207E22ADF80A208522ADF80420F4
:1026400098226079A179ADF80C2099220023ADF889
:102650000620ED22ADF80E200144ADF8003002AAAC
:102660003DF81350854204D832F813508D4280F063
:1026700087810133042BF3D1312308228DF81220F6
:1026800007228DF8132057228DF8142062798DF8D7
:1026900015208DF81730A279924B8DF816200A215B
:1026A00004A89847904B01221A70AEE03B208F4B54
:1026B00098470428814600F0AC80062814BF1123F7
:1026C000772362798A4F8B4EE07994F809808A4D9E
:1026D00043F008031A403A70A27913403370237A0A
:1026E00040EA0320A37A48EA032800B20FFA88F8E8
:1026F000A5F8E501A5F8E781002800F08C807F4B64
:10270000DFF820B2984772A3D3E90023D8477C4B67
:1027100098477C4B9847A5F80902B8F1000F7FD085
:102720004046764BDFF8FC81984769A3D3E9002344
:10273000C047734B9847734B9847A5F80F02A27B8D
:10274000637B43EA0223A5F80B32227DE37C43EA54
:102750000223A5F81132227CE37B43EA0223A5F889
:102760000D32A27D637D684C43EA0223674AA5F8D7
:1027700013321368502001331360A047B9F1020FE0
:1027800053D0B9F1040F0CBF032307233A787878AC
:1027900090424CD1B978814249D121F0080185F8A5
:1027A0001D1232787078904249D1B178814246D179
:1027B00021F0080185F81E1295F81E3203F00F0370
:1027C00085F81E3295F81D32442003F00F0385F87A
:1027D0001D32A0474C20A0474D4B2E209847430464
:1027E0000BD595F81E3223F00F0385F81E3295F8AD
:1027F0001D3223F00F0385F81D327B78BB703B78C8
:102800007B707378B37033787370504625B0BDE831
:10281000F08F332355E785F8090285F80A027CE733
:1028200085F80F8285F8108289E70123AEE723EA55
:10283000020122F00F020A4385F82D22B1E723EAB4
:10284000020322F00F02134385F82E32B4E72A4B1D
:1028500060795B79834201D02E4B9847237A532BC2
:1028600008D12D4BA27A1A70E27A5A70227B9A70A4
:10287000627ADA70637B1D4E432B13D01D20B04764
:10288000A17988421ED11E20B047E179884202D04A
:102890001E20224B9847224B00221A7051201A4BBF
:1028A0009847B2E75520184B1C4F984722252846D9
:1028B000B0472B1D01350146ADB298B2B847262D61
:1028C000F5D1DBE71D20154B9847DCE7AFF300801F
:1028D0009A999999999909407D6A4000D01B0020E6
:1028E000E5694000056A4000EA0B0020BDA04000F9
:1028F000E70B0020E40B002090160020EDCE4000F6
:10290000A9D540003DDC400069334000D80B0020D1
:10291000C9A04000B5254000601C002055A0400023
:10292000D20B0020B9CF4000A279772AB3D8D11DAD
:1029300067798DF81210DFF864908DF81430072154
:1029400002F109088DF813108DF815708DF8162016
:102950000023DDB25E1CA3797819AB42C0B204D863
:10296000414604A80A4B984795E7C84724AB1D4445
:10297000334605F8790CECE70028BFF646AF4CE685
:10298000044B054A9847013014BF3023322374E6C4
:10299000056A4000D9A84000D71B0020BDA0400018
:1029A00038B5094B094C98472268811A0229054617
:1029B00002D8904206D338BD904203D9044B9847C1
:1029C000044B9847256038BDC9B84000E00B002093
:1029D0005D1A4000F9254000F0B5604DB5F8203291
:1029E000990689B04BD595F8244285F81C4273238B
:1029F0008DF800306D238DF801300C238DF80230F6
:102A000004238DF8033046238DF8043095F8DD312A
:102A10008DF805308DF8074095F8DE31504C8DF873
:102A200006303C20A0478DF808003B20A0474D4CC5
:102A30008DF8090026680023711C8DF80A308DF886
:102A40000B308B07216014D1474B18680A221729D5
:102A500002FB00F292FBF6F26A701D4609DD10B926
:102A60005020424B98472B685B102B6023685B100B
:102A700023600E2168463E4B984709B0F0BD3D4E9D
:102A800095F82F1233783C4A002B4FF0000414BF06
:102A9000F720002001F0DF0123460A2B03D1002993
:102AA00018BF082407E0A3F10807012F177838D8CA
:102AB000384218BF082401330D2B02F10102ECD17A
:102AC00055202E4B984710B144F00204E4B295F81B
:102AD0001B32DA0748BF64F07F044FF03B00204B05
:102AE00048BFE4B2984702281DD004280BBF30220B
:102AF00070220320072033784F2B214B1FD11978E8
:102B0000042919D90521197095F81E3230EA0301FC
:102B100003D195F81D12884308D044F01004E4B2A4
:102B200063E7002FBCE710220120E4E70B431A42C1
:102B3000F3D144F02004F2E701311970F9E795F878
:102B40001E120A4203D195F81D120A4202D044F027
:102B50001004E4B200221A7047E700BF901600206C
:102B6000BDA04000D40B0020D80B0020153340003E
:102B7000056A4000CE100020B5180020F532400054
:102B8000DC0B00202DE9F047694B1A789AB022B18E
:102B900000221A701AB0BDE8F087664E664CDFF866
:102BA000A88107238DF80330337813F0010F40F02C
:102BB000CD8038238DF8023031238DF80430B4F8FD
:102BC00019328DF805301B0A8DF8063094F82D3235
:102BD00094F82E12003318BF012309B143F0020309
:102BE0008DF8073094F82F3213F0570F94F81F32F6
:102BF00003F0030318BF20228DF8093055204F4BF6
:102C00008DF8082098478DF80A003B200A21B4F976
:102C10000322B4F9053292FBF1F293FBF1F38DF844
:102C20000B208DF80C30C047B4F9E5318DF80E302B
:102C30001B128DF80F30B4F9E7318DF810301B12EC
:102C40008DF8113000238DF80D0019460DEB0302AD
:102C50000133142B9174F9D1B4F909328DF8123083
:102C60001B128DF813309DF80D20B4F90F328DF83A
:102C70001430022A4FEA23238DF815301ED9B4F9F7
:102C80000B328DF816301B128DF81730B4F9113253
:102C90008DF81830042A4FEA23238DF819300DD906
:102CA000B4F90D328DF81A301B128DF81B30B4F9BF
:102CB00013328DF81C301B128DF81D303A20C0479E
:102CC0008DF826007E20C0478DF827009820C04749
:102CD0008DF82800ED20C04794F81D328DF82A3079
:102CE00094F81E328DF82B308DF829000023E1185E
:102CF0000DEB0302013391F8251282F82C100C2BF6
:102D0000F5D13A2533780E49013333700B78152B02
:102D1000C3F116024FF0020092FBF0F2227100F2B2
:102D20006A8201330B7029466846064B984731E7A3
:102D3000EA0B0020DD0B002090160020F532400049
:102D4000D20B0020056A4000BDA0400067238DF82B
:102D5000023032238DF80430C64BC74FDA788DF835
:102D600005209A788DF806205A781B788DF808305F
:102D7000C24B8DF807201B688DF809301A0A8DF8B0
:102D80000A2040201A0C1B0E8DF80B208DF80C30F9
:102D9000C04700F007008DF80D007B20C0478DF87C
:102DA00035007C20C0478DF836009620C0478DF84E
:102DB00065009720C047B7F9002094F8DC318DF802
:102DC00066008DF80E20AE4D8DF8343012120820BA
:102DD0008DF80F20A847AA463B46002800F0FF8147
:102DE000B4F9A920A74F8DF8102012128DF81120E8
:102DF0003A786AB9B3F90420B3F906308DF8122095
:102E00008DF8143012121B128DF813208DF8153026
:102E1000DFF87C920020C847051C4FF0010018BF66
:102E20000125C8474B4608B145F0020502209847E6
:102E300008B145F0040594F82F301B07A37948BF6B
:102E400045F00805D807A37E48BF45F01005D9070F
:102E500094F82E3048BF45F02005DA07E37948BFE3
:102E600045F040051B07B4F909308DF817304FEADB
:102E700023238DF81830B4F90B308DF830304FEA39
:102E800023238DF83130B4F91D308DF837304FEAF7
:102E900023238DF83830B4F91F308DF819304FEAFC
:102EA00023238DF81A30B4F931308DF839304FEAD8
:102EB00023238DF83A30B4F933308DF81B304FEAC4
:102EC00023238DF81C303B7848BF45F080058DF8F2
:102ED00016506BB9B4F90D218DF83B2012128DF804
:102EE0003C20B4F90F218DF83D2012128DF83E20C0
:102EF000B4F911218DF83F2012128DF84020B4F959
:102F000013218DF8412012128DF842206BB9B4F9CB
:102F100021218DF8432012128DF84420B4F9232189
:102F20008DF8452012128DF84620B4F925218DF830
:102F3000472012128DF84820B4F927218DF8492036
:102F400012128DF84A20B4F935218DF84B20121257
:102F50008DF84C20B4F937218DF84D2012128DF8E0
:102F60004E20B4F939218DF84F2012128DF85020DF
:102F7000B4F93B218DF8512012128DF852206BB913
:102F8000B4F949218DF8532012128DF85420B4F968
:102F90004B218DF8552012128DF85620B4F94D2191
:102FA0008DF8572012128DF85820B4F94F218DF862
:102FB000592012128DF85A20334AB2F900208DF8A8
:102FC0005B2012128DF85C20304AB2F900208DF897
:102FD0005D2012128DF85E20A3B9B4F999318DF8F5
:102FE0005F301B128DF86030B4F99B318DF8613081
:102FF0001B128DF86230B4F99D318DF863301B12CD
:103000008DF86430B4F9E9318DF81D301B128DF85C
:103010001E30B4F9EB318DF81F30B4F9ED318DF875
:103020002030B4F9F1318DF821301B128DF82230A7
:10303000B4F9F3318DF823301B128DF82430B4F934
:10304000E5308DF825301B128DF82630637D8DF824
:10305000273094F829308DF828300A2094F83D3034
:103060008DF82930D047002800F0BC8094F8DD307E
:1030700010E000BF601C0020881600201011002006
:103080002D014000EE100020680B0020660B002090
:10309000510140008DF82A300F2063788DF82B30D5
:1030A000C0473038C0B202289FBFC0EB401500EBCC
:1030B000850000EB800005014FF0100094BFADB219
:1030C0000025C04781461120C0473038A9F13003A0
:1030D000C0B2DBB200EB8000C3EB431200EB800018
:1030E00003EB8203800000EBC300454B0544984787
:1030F000ADB2C82D4FF06403B0FBF3F38DF82C3064
:1031000073D819238DF82D3094F8DF318DF83230D3
:1031100094F81B328DF833303B788DF82E00012B5C
:103120004FEA10208DF82F0057D1364BB3F90030FD
:103130008DF843301B128DF84430334BB3F9003017
:103140008DF845301B128DF84630304BB3F9003006
:103150008DF85F301B128DF860302D4BB3F90030C5
:103160008DF861301B128DF862302A4BB3F90030B4
:103170008DF863301B128DF86430274BB3F90030A3
:103180008DF812301B128DF81330244BB3F9003038
:103190008DF814301B128DF81530214BB3F9003027
:1031A0008DF83B301B128DF83C301E4BB3F90030CC
:1031B0008DF83D301B128DF83E301B4BB3F90030BB
:1031C0008DF853301B128DF85430184BB3F9003082
:1031D0008DF855301B128DF85630692592E5B7F9F8
:1031E0000220FFE594F8C93054E7B5F5966F94BF17
:1031F00023232D2386E751200D4B984793E500BFED
:10320000A5494000DA100020D8100020E41000206A
:10321000E6100020E8100020EC100020EA1000204A
:10322000D6100020D4100020DE100020DC1000207A
:103230001533400038B51948194B9847194B1A688F
:10324000B2F5FA7F1A46184B09DBD96B11F0807F73
:103250004FF0807114BF5963196300211160DC6B5A
:10326000124D14F000540AD02B7801332B702B78B8
:10327000DB074CBF0E4B0F4B9847012038BD0E4B60
:103280002C701C7051200D4B98470D4B5B79002B17
:10329000EDD020460B4B9847E9E700BF50140E4095
:1032A000293A400014110020000E0E40DE0B0020D1
:1032B000852B4000D9294000D20B00206933400003
:1032C00090160020B52540000023084819461A181A
:1032D00001330D2B82F82512F9D10023044A194637
:1032E00099540133702BFBD1704700BF901600201A
:1032F000D8110020064BC0F3C702134400F00700AA
:1033000093F8253243FA00F000F00100704700BF47
:1033100090160020064BC0F3C702134400F00702CA
:103320000120904093F82522104383F8250270472E
:10333000901600200A4A135C082B02D8013313545C
:103340007047084AC0F3C7031A4400F0070001237E
:1033500003FA00F092F82532184382F825027047EC
:10336000D81100209016002010B50A4BC0F3C702F8
:10337000134400F0070493F8252242FA04F1C90728
:1033800041BF0121A1408A4383F82522024B00223C
:103390001A5410BD90160020D8110020074A426030
:1033A000074A82604FF480220023C2600222036039
:1033B000027442748374C3740375704700E1F505A9
:1033C000808D5B00B1F5803F436802D0B1F5003FCE
:1033D00006D123F010034360036C19430164704766
:1033E00019434160036C23F44033036470470000C9
:1033F00070B5056B15F080753ED1012303608B7CA1
:103400004A7C002B0B7C4FEA02724FEA036302F006
:10341000405203F0706343EA0203CA6843EA0203BE
:103420008A684FEA42064A68B2FBF6F202F1FF32BE
:103430004FEA022292B218BF4FF0004513432B43CC
:103440004360CB7C0A7D002B14BF4FF080730023B8
:10345000002A14BF4FF4801200221343036409684A
:10346000064B98470023064A194642F823100133B9
:10347000182BFAD1002070BD192070BDC533400053
:103480005012002073B50A4B0A4D1B6B0A4E019374
:103490000024019A55F824301A4203D056F82430FB
:1034A00003B198470134182CF3D102B070BD00BFAE
:1034B00000800340681C41005012002007B5104BEB
:1034C0001D2098470F4A9378FF2B00D1FEE7EFF3BA
:1034D0001083B3FA83F35B09019372B6BFF35F8F76
:1034E000094900230B70937801980133937020B140
:1034F00001230B70BFF35F8F62B603B05DF804FB6E
:103500004992400048120020A500002008B5120290
:1035100002F4706241F080611143024B9847002031
:1035200008BD00BF5D000020A1F10E03012B37B5DF
:103530001DD9EFF31083B3FA83F35B09019372B6DD
:10354000BFF35F8F0B4C002323700B4B019D03EAED
:10355000022242F0B442C9B21143084B984725B148
:1035600001232370BFF35F8F62B603B030BD4FF00D
:10357000FF30FAE7A500002000FFFF0061000020F7
:1035800019B10B6803604B6843601AB1136803619B
:1035900053684361704721F0FE01C905C90D0162FE
:1035A000704740687047406800F4E06070474368C7
:1035B00019B143F001034360704723F00103FAE7B8
:1035C000016270474162704770B584688568AC429B
:1035D000FBD151B1C4F30155C4F303400A2606FBE5
:1035E0000500650248BF0C3008603AB1C4F30230F0
:1035F000C4F303210A2505FB001111603BB1C4F39C
:1036000002120A2104F00F0401FB02441C6070BD89
:1036100070B5446814F0010405D00C2986BF0C393C
:103620004FF4800400240A25B3FBF5F605FB16339E
:1036300043EA0613B2FBF5F643EA063305FB16260A
:1036400043EA06232343B1FBF5F243EA025305FBA9
:10365000121143EA014183695A07FCD5036843F01C
:10366000010303608369DB07FCD50123C36181602B
:10367000036823F001030360C06A00F0010070BD1D
:10368000F0B5059EC468C568AC42FBD181B10A277C
:10369000C4F3021004F00F0507FB0055C4F3032E1A
:1036A000C4F3033007FB00E0642707FB0500086054
:1036B0003AB1C4F30050C4F303410A2505FB0011DD
:1036C00011603BB1C4F30171C4F303620A2000FB33
:1036D00001221A6016B1C4F342543460F0BD70B5D3
:1036E000049C0A256405B3FBF5F644EA067405FB61
:1036F000163344EA0363B2FBF5F443EA045305FBD3
:10370000142443EA04434FF47A72B1FBF2F243EA21
:1037100002136422B1FBF2F2B2FBF5F405FB1422B2
:103720001343B1FBF5F205FB121143EA0121B2FB91
:10373000F5F305FB132541EA053183695A07FCD5EA
:10374000036843F0020303608369DB07FCD50123B0
:10375000C361C160036823F002030360C06A00F024
:10376000020070BD80697047C1617047214B99426A
:1037700010B53CD8A3F57A53994223D91E4B1F4C60
:10378000B2FBF4F40B449B00043CB2FBF3F20023C5
:10379000043AFF2C01D9072B0CD1FF2A0DD81202B5
:1037A0001B0492B203F4E0231A43E4B22243026101
:1037B000002010BD01336408EBE7062BEFD801337E
:1037C0005208EAE749000023B2FBF1F2043AFF2A6B
:1037D00001D9072B08D111021B0489B203F4E0239D
:1037E0000B43D2B21A43E2E701335208EFE701205C
:1037F00010BD00BF801A06000012FD3F00B80B008C
:1038000038B54FF0FF338362036A80230360036B94
:103810000823036020230360042303600D460A6825
:10382000064B496804469847431E584258416B7AF4
:10383000012B04BF4023236038BD00BF6D3740001B
:1038400061B10129037807DD4278022942EA0323A6
:1038500002D0827842EA0323184670470B46FBE702
:10386000F8B5CC6805460846002C48D000268F687D
:103870006E604B680A7C1B0203F44073120402F46E
:10388000FE0243F4805313436B60EE601E4B4968A5
:103890009847012C0CBF03230123E86006BF26468E
:1038A0002B602B60022147F230532A6AD00528D4BE
:1038B00033B909242046F8BD47F230531746F4E7E0
:1038C000012C02D10EB929602646900702D4013B93
:1038D0003A46F3E72B6B3B70013C07F10102EBD159
:1038E0000A4B1C602A6AD20703D41A68B2F5FA7F21
:1038F000F8D32A6A1B68B3F5FA7FDAD2DAE7012433
:10390000D8E70524D6E700BF413840004011002029
:1039100070B5CE6804460846002E3ED08D68002162
:103920006160037C42681B04120202F4407203F4DB
:10393000FE0313436360E1604168194B98472E44CE
:10394000E060AE420ED1174B00221A60226A12F4D8
:1039500080710AD1500710D41A68B2F5FA7FF5D3F6
:10396000092070BD236ADA0501D5052070BD5B070B
:1039700044BF15F8013B6363E3E70222226019604C
:10398000226AD20703D41A68B2F5FA7FF8D31B680B
:10399000B3F5FA7FE4D2002070BD012070BD00BFF6
:1039A00041384000401100207FB506AA002302F8EC
:1039B000153D8DF8141003928DF804300122029306
:1039C00001A9034B0492984707B05DF804FB00BFC0
:1039D0001139400043699B0743BFC1F30801C1612E
:1039E0000020012070470000084BB3FBF1F1814239
:1039F00008D8C1EB0133834204D3B0FBF1F0C0F32C
:103A00000B0070474FF6FF70704700BF0020A10702
:103A100010B5044CC2F30B0204EA034313430B43F7
:103A2000436010BD0000FF0F024B984204BF024BE1
:103A30000360704750140E40010000A508B50A4607
:103A4000024B014602489847002008BD0D35400052
:103A5000000A0E4008B5A0F58002C2F34F221121E2
:103A6000034B04489847002814BF1020002008BDCD
:103A700029354000000A0E402DE9F74FA0F58006D9
:103A8000DFF890A0DFF898B0009389469046C6F31F
:103A90004F26C0F30804B8F1000F03D1404603B02D
:103AA000BDE8F08FC4F5007306F5005543454FEAB5
:103AB00045251F46224628BF4746294615480193FB
:103AC000D8473A4649460AEB0400D847019BE0191B
:103AD000DA1B7919214492B25044D84705F5007396
:103AE000AAEB05014A5945F8042BAB42FAD1009ADA
:103AF000094B62B132460321084898470028CED1CD
:103B00000136B944A8EB0708B6B20446C3E732460B
:103B10000121F1E7EC0B002029354000000A0E409E
:103B2000D9DC4000F8B5104C2140204001F5FF548D
:103B30001F3402B1106003B11C600C4D0C4E0D4FD0
:103B4000A0F58004640A0D44A4B2C5F34F25A54234
:103B500001D80020F8BD224609213046B847002888
:103B6000F8D11034A4B2F2E700E0FFFFFF1FC0FF5E
:103B7000000A0E4029354000024B01225A61C3F869
:103B8000A0207047000E0E40024B02225A61C3F87B
:103B9000A0207047000E0E4010B5034B9847034B12
:103BA000BDE81040184700BF893B4000793B40000A
:103BB000034B01221A61C3F8A0205A63704700BF6B
:103BC000000E0E40034B02221A61C3F8A0205A6374
:103BD000704700BF000E0E40034B01225A61C3F82C
:103BE000A020D86B10407047000E0E4010B5084B57
:103BF000084C9847084B984740F29550A047074B10
:103C00009847234640F29550BDE81040184700BF42
:103C1000793B400079000020893B4000B13B4000E7
:103C200010B50A4B0A4C98470A4B984740F29550FA
:103C3000A047094B984740F29550A047074B98473B
:103C4000234640F29550BDE810401847C53B400060
:103C500079000020B13B4000893B4000793B4000A7
:103C600070B50A4D0A4CA84740F2CB20A047094B3B
:103C7000984740F2CB20A047074B984740F2955019
:103C8000A047A847054BBDE870401847C53B40001A
:103C900079000020B13B4000893B4000793B400067
:103CA00070B50A4E0A4C0B4DB04740F2CB20A047EE
:103CB000A84740F2CB20A047074B984740F29550C9
:103CC000A047B0472B46BDE870401847C53B4000B1
:103CD00079000020793B4000893B4000F8B5194F3E
:103CE000194D1A4EB84740F29550A847184B9847BF
:103CF000B320A847B0470446B320A847B0470444C0
:103D0000B320A847B047E4B20444B320A847B04763
:103D1000E4B20444B320A847B047E4B20444B3205B
:103D2000A847B047E4B20444B320A847B047E4B280
:103D30000444E4B2B320A847B847032C94BF002042
:103D40000120F8BDC53B400079000020D93B400070
:103D5000893B40002DE9F047114F81460824802619
:103D6000B846B8470F4D40F2CB20A84719EA060FD6
:103D700014BF0D4B0D4B984740F2CB20A8470C4B7E
:103D80009847013C40F29550A847C04714F0FF0403
:103D90004FEA5606E5D1044BBDE8F047184700BF8F
:103DA000C53B400079000020793B4000B13B40001A
:103DB000893B40002DE9F8434000174B174E184D42
:103DC000184F89469046C4B29847174B98472046EB
:103DD000B047A84720B1B8476FF00400BDE8F883AA
:103DE0004846B047A8470028F5D14046B047A84705
:103DF0000028F0D104EB09004044C043C0B2B047F2
:103E0000A84720B1B8476FF00200BDE8F883B84773
:103E10000120BDE8F88300BF993B4000553D4000BC
:103E2000DD3C4000213C4000ED3B40002DE9F84FD7
:103E30001F4F08264FF0800B4FF0000AB8461D4D6B
:103E4000DFF87890B84740F29550A8471A4B98474A
:103E5000B320A847C8470446B320A847C84704442E
:103E6000B320A847C847E4B20444B320A847C847D2
:103E7000E4B20444B320A847C847E4B20444B320E2
:103E8000A847C847E4B20444B320A847C847E4B2EF
:103E90000444E4B2B320A847042C88BF4AEA0B0AC2
:103EA000C047013E4FEA5B0BC9D15046BDE8F88FD1
:103EB000C53B400079000020893B4000D93B4000D1
:103EC0002DE9F84F44000134E4B2DFF8C8B0DFF860
:103ED000C8802A4F0D4691461E46D8472046C04707
:103EE000B84728B1264B98476FF00400BDE8F88F1B
:103EF0002846C047B8470028F4D13046C047B847E5
:103F00000028EFD160193044C043C0B2C047B84761
:103F100028B11B4B98476FF00A00BDE8F88F40F2BC
:103F20009550184B9847D8472046C047B8470028B7
:103F3000D8D1013E144FDFF8588009F1FF354E44C7
:103F4000B5420AD1B84782450D4C11D00F4B984766
:103F5000A0476FF00200BDE8F88FB8470444E4B210
:103F60006FEA040A05F8010F5FFA8AFAC047E7E72B
:103F7000074B9847A0470120BDE8F88FDD3C400083
:103F8000213C4000790000202D3E4000A13C400033
:103F9000613C4000ED3B4000553D400083B203F1E1
:103FA000630292B2312AA1EB000111D8FA29A1F1E2
:103FB000E203CCBF24484FF07E50182BA1F1C90377
:103FC00098BF2248182B34D9C8293BDC20487047B9
:103FD00095339BB2312B14D8B1F5967FA1F1FB0339
:103FE000CCBF1C484FF07E50312BA1F1C90398BFC4
:103FF0004FF07D50312B1ED9C82923DC4FF07A5069
:10400000704795301ADAB1F5AF7FA1F5A373CCBF35
:104010004FF07D504FF07E50182B6FF496730B4489
:1040200098BF0D48182B0CD9B1F5967F0ADC0B48C8
:1040300070470B4870474FF07C5070474FF07E50F0
:1040400070470848704700BF7B146E3F9A99593FEC
:104050003D0A173FAE47613FCDCC0C3FC3F5A83EAC
:10406000C3F5283FAE47E13E2DE9F0414020944C96
:10407000A04706461220A047362800F006810720F8
:10408000904B914C914D984730B394F8D6311BB377
:104090008F4F904B3E78DFF88882304698478E4BA2
:1040A000984785A3D3E90023C0478C4B98478C4B96
:1040B000C0B23228187004D83336361A33223E7014
:1040C0001A70B4F8193243F00203A4F8193240F21E
:1040D000B1432B60BDE8F081B4F81932990740F183
:1040E000B980B4F82022D20700F1B4802A68B2F572
:1040F000966F05DD23F00203A4F81932BDE8F081C4
:10410000042E784E6AD15B20B04758B1B4F819320A
:1041100023F00203A4F81932734B4FF480025A6360
:10412000BDE8F0814020B0470028EFD14820B047DB
:104130000028EBD14420B0470028E7D14C20B047FD
:104140000028E3D1B4F90132312B0DDDB4F8193276
:1041500023F00203A4F81932644B00221A60624B68
:104160004FF480025A630DE02968322291FBF2F38A
:1041700002FB131333B95E4B022098475D4B68B1C5
:104180005D4A1A605B4E5D4B37684FF07A542146AA
:104190003846984700283ED0346044E0B4F9012204
:1041A00012F13B0F06DA564A1A604F4B4FF4800269
:1041B0001A63E7E712F1280F01DA524AF4E712F125
:1041C000140F01DA504AEFE7002A02DA4FF07D526D
:1041D000EAE71D2AD6DC4D4A1A60C0E75920B047ED
:1041E00050B1B4F8193223F00203A4F819323F4B4E
:1041F00000221A60BDE8F0815820B0470028F0D1B5
:10420000B4F9FB01031DECDAB4F9FD11404B9847FA
:10421000384B1860B6E74FF07E54214638463D4B88
:1042200098470028B8D12A4F2A4B3C782046984717
:104230003168394B9847394B9847294BC0B23228DF
:10424000187004D83334241A33223C701A702B6847
:1042500001333EE72A681AB1013A2A60BDE8F081CD
:10426000042E224A16D1B4F901121E290FDC11685E
:10427000481C0329106004DD43F00203A4F819323E
:1042800016601C4B4FF07E521A60BDE8F08100238F
:104290001360F6E7B4F9FB113131F8DA1168481C04
:1042A00003291060EDDD43F00203A4F81932042362
:1042B000EEE700BFAFF300809A9999999999D93F99
:1042C000BDA04000A501400090160020080E00206F
:1042D000250E0020B5D7400011CF400019D5400071
:1042E000240E0020F5324000000E0E40140E002077
:1042F00051014000A00000209A99593FA1DB4000E5
:104300003333B33E6666E63E9A99193F6666663F6A
:104310009D3F4000DDDB400065D84000F1DB400000
:10432000B9CF40000000000038B53F200C4B0D4DC8
:1043300098470D4B98470D490D4B98470D4B044638
:10434000984705A3D3E90023A84700B10A4C2046AB
:1043500038BD00BFAFF300809A9999999999D93FD8
:10436000BDA040009DD44000B5D740000000C84229
:10437000CDD9400011CF4000CDCCCC3E2DE9F04F3F
:104380004E2085B0A24FB84704468DF80C004F2050
:10439000B8478DF80D0082467920B847631E012B7F
:1043A000834657D90AF1FF33012B53D9092C51D039
:1043B000BAF1090F4ED0032C4ED0BAF1030F14BF3F
:1043C00000248024934DDFF86892B5F8193214F078
:1043D000800F17BF43F4807323F48073A5F819325C
:1043E000802408BFA5F8193200260DF10C0816F834
:1043F0000820012A3ED1884B1B787BBB06F58076CE
:1044000005EB460640F2ED23B6F903209A42D8BFE9
:1044100011248248824B98472E20824B9847BAF14C
:10442000070F064640F0D480B5F90532DFF8109248
:10443000962B4FF00C0040F3D780C847002800F0BF
:104440004F81720500F1028126F4006189B241F4C6
:104450008061D2E01024B5E78024B3E74F2BD8D198
:1044600006F5807605EB4606B6F90330C72BD8BFB4
:104470001124CEE7022A1AD1674B1B784BB906F5F7
:10448000807605EB4606B6F90330C82BA8BF112489
:10449000BFE74F2BBDD106F5807605EB460640F20F
:1044A000ED23B6F903209A42C8BF1124B1E7032ACD
:1044B00015D106F5807605EB4606B6F903300333D1
:1044C0009B10332B01DC8124A3E7FF2B564AA8BFA6
:1044D000FF23DBB21370554A8024137099E7A2F1D1
:1044E0000B03032B28D806F5807305EB43030B2A37
:1044F000B3F9033025D1B3F5AF7F18DB4C4C39202D
:10450000A0473B20A0473A20A0473820494B984776
:10451000BBF1000FD7D17E20B847474E044601219A
:104520007920B047611CC9B27E20B047CBE7BBF110
:10453000010F4BD03820C8470136022E3FF469AF37
:1045400055E70C2A14D1B3F5C87F0FDB364AFF2399
:104550001370364A38201370C8473B20C8473A20AA
:10456000C8473920334B9847822452E73920E2E785
:104570000D2A15D1B3F5C87F10DB2B4BFF221A7023
:104580002A4B002238201A70C8473920C8473B20E0
:10459000C8473A20274B984783243AE73A20CAE78E
:1045A000B3F5C87F10DB204B00221A701F4BFF228F
:1045B00038201A70C8473920C8473A20C8473B20DE
:1045C0001C4B9847842424E73B20B4E78124B3E7BD
:1045D000BAF1080F3AD1B5F90532DFF86490962B9D
:1045E0004FF00C007FF729AFC84758B331052DD4E1
:1045F00026F4806189B241F40061104B2E20984767
:104600003A20B847411CC9B23A200B4B98471DE0ED
:10461000BDA0400090160020CE10002050140E4087
:10462000293A4000C9A04000250E0020240E002099
:10463000693340001533400055A040006DA0400094
:104640002D0140000120C8470028CFD1DFF880B1FC
:10465000DFF880A1594E4FF0000918F80930092BF6
:1046600022D19BF80030DAF80020002B42D0544BC6
:104670009A4207D933782BB9012232708BF8003077
:10468000504A13604C20B84700283DD1B5F8193284
:10469000CAF80000C3F30E03A5F819324A4B307074
:1046A0001870484B1124186009F10109B9F1020F83
:1046B000D3D1B5F81932002C7AD023F00103802C25
:1046C000A5F8193208D8414D3820A8473920A84705
:1046D0003A20A8473B20A847204605B0BDE8F08F08
:1046E000C84700287FF4ADAE1420C84700287FF4E7
:1046F000A8AEABE741F287339A42C3D93378002B97
:10470000C0D101223270BBE795F81B3213F00203CF
:104710003FD109F5807205EB4202B2F90320962AD7
:1047200016DD3378002BBFD0274B1A78002ABBD177
:1047300001211970B5F81932CAF800206FEA434315
:104740006FEA5343A5F819321E4B1A601024ABE7E9
:10475000B5F819220193C2F30E02A5F819221A4ADC
:1047600033201370B84717494EF66022D1F800E0A5
:104770005043704504D8327812B1019B0B6011246C
:10478000B5F819329B068FD13378002B18BF11244E
:104790008AE70D4A0023CAF8003013703370B5F869
:1047A0001922C2F30E02A5F81922064A1360CDE7BA
:1047B00043F00103A5F8193285E700BF180E002069
:1047C000DF280100EC0D0020F00D002069334000CF
:1047D000CD1000202411002073B50020464E474C18
:1047E000474DB047002834D0E379190731D52B68FD
:1047F000002B6DD0434E0220B0470020B04701206F
:10480000B0472A68013A2A60B4F8193223F03F030E
:104810009BB2002A63D1A4F8193294F8DD2194F8F0
:10482000DE31013AD2B2013BDBB2542A84F8DD21F9
:1048300084F8DE315BD9542B9CBF552384F8DE31DC
:10484000314B94F8DD211A70304B94F8DE211A7048
:104850004BE00220B04718B194F82F301A07C6D4A5
:104860000120B0470028C2D12B68002BC2D1284BB1
:1048700000201860244B84F8DD011870234B84F865
:10488000DE011870B4F8193223F03F03A4F819328E
:10489000204C23680133072B236013D11E4B98470C
:1048A0001E4B1B688DF800301A0A8DF801201A0C77
:1048B0001B0E8DF802208DF803306A462521222038
:1048C000174B984723680C2BC4BF0C2323600CE0C4
:1048D000B4F819329B06CAD096232B60C4E743F084
:1048E00004037D2AA4F8193297DD02B070BD552269
:1048F00084F8DD219FE700BF5101400090160020A1
:10490000040E0020DD014000250E0020240E0020B2
:10491000100E00200C0E0020C5B040001011002029
:10492000D9A840002DE9F047194B1A4CDFF870A0C8
:10493000C0F164050846984704EB451406460F4647
:10494000154DD4E90023A84732463B46A8473246D6
:104950003B46A847D4E9022380468946304639467B
:10496000A84732463B46A84742464B46D047D4E983
:1049700004238046894630463946A84742464B467E
:10498000D047D4E90623D047044B9847BDE8F087C9
:1049900011CF400098204100B9CF4000A9D5400078
:1049A00055CC400070B51F4C1F4D23680F20EBB94C
:1049B000A84704461020A84706461120A84704EB44
:1049C0008404A0F5A65004EB8404103800EB8400A6
:1049D00006EB860600EB460000B220EAE07000EB32
:1049E000800000EB8000800080B270BDA847236883
:1049F0001B78834213D11020A84723685B78834239
:104A00000DD11120A84723689B78834207D112203B
:104A1000A8472368DB78834201D1A08870BD0634A3
:104A2000C3E700BF82000020BDA0400000000000DE
:104A30002DE9F74F364B374DDFF8F8B0C0F1640A77
:104A400008460C469847344B80462046894698478E
:104A500005EB4A15314CDFF8E0A006460F46D5E9D4
:104A6000002340464946A04742464B46A0473246AF
:104A70003B46A047D047D847D5E90223CDE90001FE
:104A800040464946A04732463B46A047DFF8AC8047
:104A900002460B46DDE90001C047D5E90423CDE914
:104AA000000130463946A04706460F46DDE90001C1
:104AB000D047D84702460B4630463946C047D04714
:104AC000D847D5E90623C047D047154B0546984738
:104AD000144B9847D8470CA3D3E90023A047D047ED
:104AE000114B044601462846984728B90F49104BF8
:104AF0002846984720B10D4C204603B0BDE8F08F02
:104B00002C46F9E7AFF300801F85EB51B81EF13F4B
:104B1000CDCE400098204100EDCE4000B9CF4000FE
:104B2000A5494000B5D74000DDDB40000000204132
:104B3000A1DB400011CF4000A9D5400055CC40007A
:104B40002DE9F74F364B374DC0F1640408468B46CC
:104B50009847354B064658460F469847334B804694
:104B6000200103EB000A1858314C8946A847324609
:104B70003B46A04732463B46A04742464B46A047ED
:104B8000CDE90001DAF80400A84732463B46A047C9
:104B900042464B46A047274E274F02460B46DDE9CB
:104BA0000001B047254B8046584689469847DAF8B9
:104BB0000810234B9847A84702460B4640464946F3
:104BC000B0478046DAF80C008946A84702460B46F3
:104BD00040464946B047B8471A4B064698471A4BD5
:104BE0009847A8470CA3D3E90023A047B847174B21
:104BF000044601463046984728B91549154B3046BA
:104C0000984720B1124C204603B0BDE8F08F3446DF
:104C1000F9E700BFAFF300801F85EB51B81EF13FED
:104C2000CDCE400011CF4000EDCE4000C81C410069
:104C3000B9CF400055CC4000A9D54000BDD74000B9
:104C400065D84000A5494000B5D74000DDDB4000F5
:104C500000002041A1DB400010B51420064CA04705
:104C6000392806D11520A047A0F1300358425841F9
:104C700010BD002010BD00BFBDA04000000000001E
:104C80002DE9F04F6C4A6D4F1188B7F909320B448A
:104C90005B101FFA83F81BB2772B87B00446A2F88B
:104CA00000806EDD0920664B664EDFF8E491984780
:104CB000002800F0F380B7F9BD50B5F5487F63DCFC
:104CC000002DB8BF0A25604BA7F8F15198478246DE
:104CD0002046B0475D495E4BDFF8B8B19847804643
:104CE0005046B0475B4BDFF8B0A1014640469847BD
:104CF000804697F8DD01B047574B98474AA3D3E960
:104D00000023C847554B9847554B5FFA80F99847A1
:104D100001265AF826104046D84710B901363D2ED4
:104D2000F7D1C6F1650080B248454E4E2FD84E4BA4
:104D3000284698474D494E4B98474E4B984781B26D
:104D40004846B0474C4B98474C4AA7F8F3011378B4
:104D50000133DBB23C2B137013D9A11E8D4297F89F
:104D6000DD3139D2B5EB540F1EDA0133E221117077
:104D7000B3F5807F08BFFF23DBB2414A1370414A7D
:104D8000137007B0BDE8F08F4FF448759BE7A9B2E8
:104D9000C0B2B047304B3C4E984725A3D3E900231F
:104DA000B0473A4B9847CDE7A4EB9401A94202DD06
:104DB0000133EC21DBE7A4EBD401A94202DD01338E
:104DC000F621D4E704EB84026421B2FBF1F2A41AC9
:104DD000AC42D1DB0133CBE7A11C8D42CCD904EB33
:104DE0005401A94206DA013BE2211170342BB8BF0D
:104DF0003423C1E704EB9401A94202DA013BEC2120
:104E0000F3E704EBD401A94202DA013BF621ECE717
:104E100004EB84026421B2FBF1F21444AC42A8BF5B
:104E200003F1FF33E2E700BF66666666666604402C
:104E3000666666666666EE3F1613002090160020D2
:104E40002D014000B5D74000A549400000007A443C
:104E5000CDD9400065D8400011CF400069D5400051
:104E600029434000314A4000BDD74000DD499F3C06
:104E700051D640003DDC4000F1DB4000FC0D00203D
:104E8000250E0020240E0020B9CF4000A9D54000F7
:104E90000DD24000DDDB40005028410097F8DD01D5
:104EA000DFF878A2B0477C4B984777A3D3E900237B
:104EB000D0477A4B9847784B984775A3D3E900239E
:104EC000C847774B98475FFA80FBBBF1270F40F24A
:104ED000B3804146734B58469847734B0290014646
:104EE00058469847714B9847714A97F8DD311370CF
:104EF000704A71491370714B00B2142893F8008006
:104F0000B8BF1420039008F101086D48039A5FFAB6
:104F100088F883F80080036813440A68036001324C
:104F2000052A0A6000F38A80664B02989847664A11
:104F30006649136813FA80F00B6810600133052B83
:104F40000B6007DD90FBF3FE5B104010A7F8F3E168
:104F50000B601060B8F1050F7FF613AF2046B04725
:104F60005B4B04900398DFF85481DFF8A4919847D5
:104F7000584B014604989847002388F80030564B58
:104F8000064698475549564B9847484B9847002145
:104F90000FFA80FA3046C847CDF8149010B1BBF133
:104FA000280F09D1002130464E4B984700283FF486
:104FB000E8AED345BFF6E5AE4B494C4B304698477B
:104FC000002800F0AF80DFF8589149493046C847C3
:104FD000002800F0A7804749444B97F8DD41304650
:104FE0009847002836D044493E4B3046984770B326
:104FF0000334FF2388F80030404D2046A84706467A
:1050000050460F46A84722A3D3E900233C4DA847AA
:105010003C4D8046894602460B4630463946A847F5
:1050200038B3404649461E4B9847C4B2204BE4B2C1
:105030001C70204B1C70A4E666239EE693FBF2FED8
:105040005B105210A7F8F1E103600A606CE70134CD
:10505000A4B2D1E72C493046C8470028CCD02B4910
:105060002B4B3046984710B1033CA4B2C1E7013C3A
:10507000EEE70022274B284D30463946A847002846
:1050800018BF6624D2E700BF7B14AE47E17AF43F35
:10509000666666666666044011CF4000A9D540008A
:1050A00069D54000414B400025494000F1DB4000FC
:1050B000250E0020240E0020200E0020FC0D0020D4
:1050C000F80D00203DDC4000F40D00201C0E0020F7
:1050D000BDD7400051D64000294340000000C842DF
:1050E00065D84000DDDB40000000D0C1C9DB4000D6
:1050F0000000D0410000C0400000E040EDCE400084
:10510000B9CF4000D9D440000000C0C00000E0C0CA
:10511000A1DB4000008059409DD4400055CC4000A8
:10512000B5DB40005449554B30469847002867D0BE
:105130001FFA8BF300931FFA8AF301930298504BE6
:10514000504F984702460B46B847804603984E4B4F
:1051500001308946984702460B4640464946DFF8EB
:105160006881C047494B8046204689469847024699
:105170000B4640464946B847454B9847454B9847EC
:1051800040F2BD2904464FF00008009B019A93426B
:105190002AD89DE80C009D1A02EB6505ADB22146A8
:1051A0003D4BE8B298473D4B0146049898473C4B2D
:1051B000029098470028B8BF40423A4B98472E4982
:1051C000394B9847002839D1029A2C4B414610465A
:1051D000984708B36A1C93B2009309F1FF331FFA92
:1051E00083F9B9F1000FD0D1244C30493046A047A3
:1051F000D0B92F493046A047D8B10BF1010518E0CE
:105200002C49059B30469847002897D01FFA8BF30E
:1052100001932823009391E7019B282BC2BF05F13E
:10522000FF3293B20193D8E7234BFE220BF1040522
:105230001A7055450ADD1FFA8AF507E01E4BFB225E
:1052400055451A70F7DC282DB8BF28250E4B284687
:10525000984707A3D3E90023B847184B9847184B42
:10526000C0B21870174B18708BE500BFAFF3008009
:1052700066666666666604400000A040DDDB4000AE
:1052800011CF4000B9CF4000EDCE4000CDCE400060
:105290001DC64000A9D540002549400051D6400018
:1052A000F1DB4000BDD74000A1DB40000000204200
:1052B0000000C8410000A0C0FC0D002069D54000DE
:1052C000250E0020240E00200DD24000000000001A
:1052D0002DE9F74F684A694F1188B7F909320B4435
:1052E0005B1013801BB2772B04466BDD1220644BDE
:1052F0009847002866D0B7F97751B5F5487F64DC48
:10530000002DB8BF0A255F4B5F4E1D805F4BDFF855
:10531000C8B1984781462046B0475D495D4B9847E4
:1053200080464846B0475C4B014640469847824617
:1053300097F8DD01DFF8A481B047C047574E4AA374
:10534000D3E90023B047564B9847564B5FFA80F994
:105350009847554B01265BF8261001935046984715
:1053600018B901363D2E019BF5D1C6F1650080B21A
:1053700048454E4E2CD84E4B284698474D494E4BEB
:1053800098474E4B984781B24846B0474C4B984798
:105390004C4B4D4A188013780133DBB23C2B137011
:1053A00010D9A11E8D4297F8DD3135D2B5EB540FDF
:1053B0001ADA0133E2211170B3F5807F08BFFF23B1
:1053C000424A137003B0BDE8F08F4FF448759AE776
:1053D000A9B2C0B2B047C0473D4E25A3D3E90023D0
:1053E000B0473C4B9847D1E7A4EB9401A94202DDBA
:1053F0000133EC21DFE7A4EBD401A94202DD013344
:10540000F621D8E704EB84026421B2FBF1F2A41A7E
:10541000AC42D5DB0133CFE7A11C8D42D0D904EBE0
:105420005401A94206DA013BE2211170342BB8BFC6
:105430003423C5E704EB9401A94202DA013BEC21D5
:10544000F3E704EBD401A94202DA013BF621ECE7D1
:1054500004EB84026421B2FBF1F21444AC42A8BF15
:1054600003F1FF33E2E700BF6666666666660440E6
:10547000666666666666EE3F16130020901600208C
:105480002D014000660B0020B5D74000A549400023
:1054900000007A44CDD9400065D840000DD24000CC
:1054A00069D5400029434000DDDB4000314A40001F
:1054B000BDD74000DD499F3C51D640003DDC400057
:1054C000F1DB40008C0A0020FD0D0020250E00209D
:1054D000B9CF4000A9D540005028410011CF40006D
:1054E0002DE9F74F684A694F1188B7F90F320B441D
:1054F0005B1013801BB2772B04466BDD1120644BCD
:105500009847002866D0B7F96351B5F5487F64DC49
:10551000002DB8BF0A255F4B5F4E1D805F4BDFF843
:10552000C8B1984781462046B0475D495D4B9847D2
:1055300080464846B0475C4B014640469847824605
:1055400097F8DE01DFF8A481B047C047574E4AA361
:10555000D3E90023B047564B9847564B5FFA80F982
:105560009847554B01265BF8261001935046984703
:1055700018B901363D2E019BF5D1C6F1650080B208
:1055800048454E4E2CD84E4B284698474D494E4BD9
:1055900098474E4B984781B24846B0474C4B984786
:1055A0004C4B4D4A188013780133DBB23C2B1370FF
:1055B00010D9A11E8D4297F8DE3135D2B5EB540FCC
:1055C0001ADA0133E2211170B3F5807F08BFFF239F
:1055D000424A137003B0BDE8F08F4FF448759AE764
:1055E000A9B2C0B2B047C0473D4E25A3D3E90023BE
:1055F000B0473C4B9847D1E7A4EB9401A94202DDA8
:105600000133EC21DFE7A4EBD401A94202DD013331
:10561000F621D8E704EB84026421B2FBF1F2A41A6C
:10562000AC42D5DB0133CFE7A11C8D42D0D904EBCE
:105630005401A94206DA013BE2211170342BB8BFB4
:105640003423C5E704EB9401A94202DA013BEC21C3
:10565000F3E704EBD401A94202DA013BF621ECE7BF
:1056600004EB84026421B2FBF1F21444AC42A8BF03
:1056700003F1FF33E2E700BF6666666666660440D4
:10568000666666666666EE3F16130020901600207A
:105690002D014000680B0020B5D74000A54940000F
:1056A00000007A44CDD9400065D840000DD24000BA
:1056B00069D5400029434000DDDB4000314A40000D
:1056C000BDD74000DD499F3C51D640003DDC400045
:1056D000F1DB40008C0A0020FD0D0020240E00208C
:1056E000B9CF4000A9D540005028410011CF40005B
:1056F0002DE9F04F984B994E9A8859881C88DA808A
:1057000099805C800546B6F90902188014FA80F089
:1057100001440A4412B2B2F5177F89B0C0F2FB808F
:105720008F4A029213780133DBB2062B137040F2DA
:10573000F2808C4B8C4CDFF8AC92DFF8ACB28B4F24
:105740009847A04701902846A047894B89498A4D30
:1057500098470199C847804696F8DD01A047D84789
:1057600079A3D3E90023A847844A03929047844B46
:105770005FFA80FA9847039A0494824CCDF814900B
:105780000125CDF800B0914657F8041F4046A047C8
:1057900018B90135EDB23D2DF6D17B4BB6F9BD0000
:1057A0009847C5F165057949764BADB28346984770
:1057B000002840F0948000215846754B984708B166
:1057C000DFF828B2734B744F584698471FFA8AF493
:1057D000A542A6F8F10100F285807049DFF8109229
:1057E0005846C847B8476E4ADFF8ECB181B2504618
:1057F0009047DFF8E8A196F8DD218BF800208AF8C1
:1058000000200390B847674A67491368CDF818B07D
:1058100013FA80F00B6810600133072B0B60CDF892
:105820001CA07BDC029B1B780B2B74D903995F4F68
:105830004046C847029ADFF89C81DFF83C9100237C
:1058400013700646009B019898470022584BC047AA
:105850000022584BB8470022574BC847574B984730
:10586000574B814601463046984730B909F100410F
:105870003046544B984700284DD05349059BDFF8DC
:1058800040B148469847824601463046D8470028EE
:105890004DD00534642C19D8AC4238BF2C46A0B288
:1058A000049B464C9847009B984729A3D3E90023C3
:1058B000B847A047009B984723A3D3E90023C047DC
:1058C000A04742492F4B0446984700B13F4C324B0A
:1058D00020469847069BC0B21870079B1AE0DFF875
:1058E000ACB06FE75846B8472D4B304C81B2E8B2A8
:1058F0009847374B2846984715A3D3E90023A0477C
:1059000011A3D3E90023334CA047C847324BC0B2A0
:105910001870324B187009B0BDE8F08F90FBF3FEA1
:105920005B104010A6F8F3E10B6010607AE749467F
:1059300048462B4B9847814601463046D8470028B9
:1059400058D00234A6E700BF666666666666044005
:10595000CDCCCCCCCCCCDC3F161300209016002054
:10596000FC0D0020A5494000B5D74000502841005B
:10597000CDD9400000007A440DD2400069D54000E6
:1059800029434000DDDB4000BDD740000000484413
:10599000A1DB4000F1DB40003DDC4000541CC73C73
:1059A000314A4000F40D00201C0E002055CC400070
:1059B000000014400000494000005940A9D54000B3
:1059C000C9DB4000B5DB40000000404000007F43E1
:1059D000EDCE4000B9CF4000250E0020240E00205F
:1059E00055D6400065D8400011CF4000000020414E
:1059F00051D64000002130460B4B984708B1013486
:105A000048E70AF10041DFF824B03046D84710B12A
:105A1000053CA4B23EE709F100413046D84708B141
:105A2000023CF6E7013CF4E7DDDB4000A1DB40008F
:105A300010B50B4B0B4C98470B4B984706A3D3E97B
:105A40000023A047094B9847094BC0B21870094B77
:105A5000187010BDAFF3008052B81E85EB51D03FD7
:105A6000B5D74000B9CF400011CF400069D5400004
:105A7000250E0020240E00202DE9F04F502085B087
:105A8000914DA847002854D1904C94F82F30180716
:105A900018D41120A84748B18D4A002313708D4AAD
:105AA00084F8DD31137084F8DE3142E01220A8471B
:105AB0000028F1D11020A8470028EDD11320A847D5
:105AC0000028E9D12E20844F844DB84710F4804F30
:105AD0008046064631D00820A84700282DD0B4F8CB
